{
  "contractName": "Crud",
  "abi": [
    {
      "constant": true,
      "inputs": [
        {
          "name": "",
          "type": "uint256"
        }
      ],
      "name": "users",
      "outputs": [
        {
          "name": "id",
          "type": "uint256"
        },
        {
          "name": "name",
          "type": "string"
        }
      ],
      "payable": false,
      "stateMutability": "view",
      "type": "function"
    },
    {
      "constant": true,
      "inputs": [],
      "name": "nextId",
      "outputs": [
        {
          "name": "",
          "type": "uint256"
        }
      ],
      "payable": false,
      "stateMutability": "view",
      "type": "function"
    },
    {
      "constant": true,
      "inputs": [
        {
          "name": "",
          "type": "uint256"
        }
      ],
      "name": "userss",
      "outputs": [
        {
          "name": "id",
          "type": "uint256"
        },
        {
          "name": "name",
          "type": "string"
        }
      ],
      "payable": false,
      "stateMutability": "view",
      "type": "function"
    },
    {
      "constant": false,
      "inputs": [
        {
          "name": "name",
          "type": "string"
        }
      ],
      "name": "create",
      "outputs": [],
      "payable": false,
      "stateMutability": "nonpayable",
      "type": "function"
    },
    {
      "constant": true,
      "inputs": [
        {
          "name": "id",
          "type": "uint256"
        }
      ],
      "name": "read",
      "outputs": [
        {
          "name": "",
          "type": "uint256"
        },
        {
          "name": "",
          "type": "string"
        }
      ],
      "payable": false,
      "stateMutability": "view",
      "type": "function"
    },
    {
      "constant": true,
      "inputs": [],
      "name": "read_size",
      "outputs": [
        {
          "name": "",
          "type": "uint256"
        }
      ],
      "payable": false,
      "stateMutability": "view",
      "type": "function"
    },
    {
      "constant": false,
      "inputs": [
        {
          "name": "id",
          "type": "uint256"
        },
        {
          "name": "name",
          "type": "string"
        }
      ],
      "name": "update",
      "outputs": [],
      "payable": false,
      "stateMutability": "nonpayable",
      "type": "function"
    },
    {
      "constant": false,
      "inputs": [
        {
          "name": "id",
          "type": "uint256"
        }
      ],
      "name": "destroy",
      "outputs": [],
      "payable": false,
      "stateMutability": "nonpayable",
      "type": "function"
    }
  ],
  "bytecode": "0x608060405234801561001057600080fd5b506109a5806100206000396000f30060806040526004361061008e576000357c0100000000000000000000000000000000000000000000000000000000900463ffffffff1680631dac378614610093578063365b98b2146100be57806361b8ce8c1461016b5780639d11877014610196578063b6a46b3b146101c3578063d2fd26971461022c578063ed2e5a97146102d9578063f745630f14610386575b600080fd5b34801561009f57600080fd5b506100a86103f9565b6040518082815260200191505060405180910390f35b3480156100ca57600080fd5b506100e960048036038101908080359060200190929190505050610406565b6040518083815260200180602001828103825283818151815260200191508051906020019080838360005b8381101561012f578082015181840152602081019050610114565b50505050905090810190601f16801561015c5780820380516001836020036101000a031916815260200191505b50935050505060405180910390f35b34801561017757600080fd5b506101806104d1565b6040518082815260200191505060405180910390f35b3480156101a257600080fd5b506101c1600480360381019080803590602001909291905050506104d7565b005b3480156101cf57600080fd5b5061022a600480360381019080803590602001908201803590602001908080601f0160208091040260200160405190810160405280939291908181526020018383808284378201915050505050509192919290505050610512565b005b34801561023857600080fd5b5061025760048036038101908080359060200190929190505050610594565b6040518083815260200180602001828103825283818151815260200191508051906020019080838360005b8381101561029d578082015181840152602081019050610282565b50505050905090810190601f1680156102ca5780820380516001836020036101000a031916815260200191505b50935050505060405180910390f35b3480156102e557600080fd5b5061030460048036038101908080359060200190929190505050610650565b6040518083815260200180602001828103825283818151815260200191508051906020019080838360005b8381101561034a57808201518184015260208101905061032f565b50505050905090810190601f1680156103775780820380516001836020036101000a031916815260200191505b50935050505060405180910390f35b34801561039257600080fd5b506103f760048036038101908080359060200190929190803590602001908201803590602001908080601f0160208091040260200160405190810160405280939291908181526020018383808284378201915050505050509192919290505050610789565b005b6000600280549050905090565b60028181548110151561041557fe5b9060005260206000209060020201600091509050806000015490806001018054600181600116156101000203166002900480601f0160208091040260200160405190810160405280929190818152602001828054600181600116156101000203166002900480156104c75780601f1061049c576101008083540402835291602001916104c7565b820191906000526020600020905b8154815290600101906020018083116104aa57829003601f168201915b5050505050905082565b60005481565b6002818154811015156104e657fe5b906000526020600020906002020160008082016000905560018201600061050d919061080c565b505050565b600260408051908101604052806000548152602001838152509080600181540180825580915050906001820390600052602060002090600202016000909192909190915060008201518160000155602082015181600101908051906020019061057c929190610854565b50505050600080815480929190600101919050555050565b6001602052806000526040600020600091509050806000015490806001018054600181600116156101000203166002900480601f0160208091040260200160405190810160405280929190818152602001828054600181600116156101000203166002900480156106465780601f1061061b57610100808354040283529160200191610646565b820191906000526020600020905b81548152906001019060200180831161062957829003601f168201915b5050505050905082565b6000606060008090505b600280549050811015610782578360028281548110151561067757fe5b90600052602060002090600202016000015414156107755760028181548110151561069e57fe5b9060005260206000209060020201600001546002828154811015156106bf57fe5b9060005260206000209060020201600101808054600181600116156101000203166002900480601f0160208091040260200160405190810160405280929190818152602001828054600181600116156101000203166002900480156107655780601f1061073a57610100808354040283529160200191610765565b820191906000526020600020905b81548152906001019060200180831161074857829003601f168201915b5050505050905092509250610783565b808060010191505061065a565b5b50915091565b60008090505b60028054905081101561080757826002828154811015156107ac57fe5b90600052602060002090600202016000015414156107fa57816002828154811015156107d457fe5b906000526020600020906002020160010190805190602001906107f89291906108d4565b505b808060010191505061078f565b505050565b50805460018160011615610100020316600290046000825580601f106108325750610851565b601f0160209004906000526020600020908101906108509190610954565b5b50565b828054600181600116156101000203166002900490600052602060002090601f016020900481019282601f1061089557805160ff19168380011785556108c3565b828001600101855582156108c3579182015b828111156108c25782518255916020019190600101906108a7565b5b5090506108d09190610954565b5090565b828054600181600116156101000203166002900490600052602060002090601f016020900481019282601f1061091557805160ff1916838001178555610943565b82800160010185558215610943579182015b82811115610942578251825591602001919060010190610927565b5b5090506109509190610954565b5090565b61097691905b8082111561097257600081600090555060010161095a565b5090565b905600a165627a7a723058200c65e48da7e10416e9c7d5f8e11fa202726114ce423cf4acb9832a6b62de4df50029",
  "source": "pragma solidity ^0.4.25;\n\ncontract Crud{\n    \n    struct User{\n        uint id;\n        string name;\n        \n    }\n    \n    uint public nextId;\n    \n    mapping (uint => User) public userss;\n    User[] public users;  //valores del array\n    //mapping (address => User) userStructs\n    //address[] public userAddresses;\n    \n    \n    function create(string memory name) public{\n        \n        users.push(User(nextId,name));\n        nextId++;\n    }\n    \n    function read(uint id) view public returns(uint, string memory){\n        \n        for(uint i=0;i<users.length;i++)\n        {\n            if(users[i].id==id)\n            {\n             return(users[i].id,users[i].name);\n            }\n            \n        }\n        \n    }\n    \n     function read_size() view public returns(uint){\n        \n        return(users.length);\n         \n    }\n    \n    \n    function update(uint id, string memory name) public {\n        \n        for(uint i=0;i<users.length;i++)\n        {\n            if(users[i].id==id)\n            {\n             users[i].name=name;\n            }\n            \n        }\n        \n    }\n    function destroy(uint id) public{\n        delete users[id];\n    }\n    \n}",
  "sourcePath": "E:\\xampp\\htdocs\\IDS_3\\Progetto_IDS\\contracts\\Crud.sol",
  "compiler": {
    "name": "solc",
    "version": "0.4.25+commit.59dbf8f1.Emscripten.clang"
  },
  "schemaVersion": "2.0.2",
  "updatedAt": "2019-10-03T10:07:08.844Z"
}