{
  "contractName": "Crud",
  "abi": [
    {
      "constant": true,
      "inputs": [
        {
          "name": "",
          "type": "uint256"
        }
      ],
      "name": "users",
      "outputs": [
        {
          "name": "id",
          "type": "uint256"
        },
        {
          "name": "name",
          "type": "string"
        }
      ],
      "payable": false,
      "stateMutability": "view",
      "type": "function"
    },
    {
      "constant": true,
      "inputs": [],
      "name": "nextId",
      "outputs": [
        {
          "name": "",
          "type": "uint256"
        }
      ],
      "payable": false,
      "stateMutability": "view",
      "type": "function"
    },
    {
      "constant": true,
      "inputs": [
        {
          "name": "",
          "type": "uint256"
        }
      ],
      "name": "userss",
      "outputs": [
        {
          "name": "id",
          "type": "uint256"
        },
        {
          "name": "name",
          "type": "string"
        }
      ],
      "payable": false,
      "stateMutability": "view",
      "type": "function"
    },
    {
      "constant": false,
      "inputs": [
        {
          "name": "name",
          "type": "string"
        }
      ],
      "name": "create",
      "outputs": [],
      "payable": false,
      "stateMutability": "nonpayable",
      "type": "function"
    },
    {
      "constant": true,
      "inputs": [
        {
          "name": "id",
          "type": "uint256"
        }
      ],
      "name": "read",
      "outputs": [
        {
          "name": "",
          "type": "uint256"
        },
        {
          "name": "",
          "type": "string"
        }
      ],
      "payable": false,
      "stateMutability": "view",
      "type": "function"
    },
    {
      "constant": true,
      "inputs": [],
      "name": "read_size",
      "outputs": [
        {
          "name": "",
          "type": "uint256"
        }
      ],
      "payable": false,
      "stateMutability": "view",
      "type": "function"
    },
    {
      "constant": false,
      "inputs": [
        {
          "name": "id",
          "type": "uint256"
        },
        {
          "name": "name",
          "type": "string"
        }
      ],
      "name": "update",
      "outputs": [],
      "payable": false,
      "stateMutability": "nonpayable",
      "type": "function"
    },
    {
      "constant": false,
      "inputs": [
        {
          "name": "id",
          "type": "uint256"
        }
      ],
      "name": "destroy",
      "outputs": [],
      "payable": false,
      "stateMutability": "nonpayable",
      "type": "function"
    }
  ],
  "bytecode": "0x608060405234801561001057600080fd5b50610a20806100206000396000f3fe608060405234801561001057600080fd5b50600436106100885760003560e01c8063b6a46b3b1161005b578063b6a46b3b146101a5578063d2fd269714610260578063ed2e5a971461030e578063f745630f146103bc57610088565b80631dac37861461008d578063365b98b2146100ab57806361b8ce8c146101595780639d11877014610177575b600080fd5b610095610481565b6040518082815260200191505060405180910390f35b6100d7600480360360208110156100c157600080fd5b810190808035906020019092919050505061048e565b6040518083815260200180602001828103825283818151815260200191508051906020019080838360005b8381101561011d578082015181840152602081019050610102565b50505050905090810190601f16801561014a5780820380516001836020036101000a031916815260200191505b50935050505060405180910390f35b610161610557565b6040518082815260200191505060405180910390f35b6101a36004803603602081101561018d57600080fd5b810190808035906020019092919050505061055d565b005b61025e600480360360208110156101bb57600080fd5b81019080803590602001906401000000008111156101d857600080fd5b8201836020820111156101ea57600080fd5b8035906020019184600183028401116401000000008311171561020c57600080fd5b91908080601f016020809104026020016040519081016040528093929190818152602001838380828437600081840152601f19601f820116905080830192505050505050509192919290505050610596565b005b61028c6004803603602081101561027657600080fd5b8101908080359060200190929190505050610618565b6040518083815260200180602001828103825283818151815260200191508051906020019080838360005b838110156102d25780820151818401526020810190506102b7565b50505050905090810190601f1680156102ff5780820380516001836020036101000a031916815260200191505b50935050505060405180910390f35b61033a6004803603602081101561032457600080fd5b81019080803590602001909291905050506106d4565b6040518083815260200180602001828103825283818151815260200191508051906020019080838360005b83811015610380578082015181840152602081019050610365565b50505050905090810190601f1680156103ad5780820380516001836020036101000a031916815260200191505b50935050505060405180910390f35b61047f600480360360408110156103d257600080fd5b8101908080359060200190929190803590602001906401000000008111156103f957600080fd5b82018360208201111561040b57600080fd5b8035906020019184600183028401116401000000008311171561042d57600080fd5b91908080601f016020809104026020016040519081016040528093929190818152602001838380828437600081840152601f19601f820116905080830192505050505050509192919290505050610808565b005b6000600280549050905090565b6002818154811061049b57fe5b9060005260206000209060020201600091509050806000015490806001018054600181600116156101000203166002900480601f01602080910402602001604051908101604052809291908181526020018280546001816001161561010002031660029004801561054d5780601f106105225761010080835404028352916020019161054d565b820191906000526020600020905b81548152906001019060200180831161053057829003601f168201915b5050505050905082565b60005481565b6002818154811061056a57fe5b90600052602060002090600202016000808201600090556001820160006105919190610887565b505050565b60026040518060400160405280600054815260200183815250908060018154018082558091505090600182039060005260206000209060020201600090919290919091506000820151816000015560208201518160010190805190602001906106009291906108cf565b50505050600080815480929190600101919050555050565b6001602052806000526040600020600091509050806000015490806001018054600181600116156101000203166002900480601f0160208091040260200160405190810160405280929190818152602001828054600181600116156101000203166002900480156106ca5780601f1061069f576101008083540402835291602001916106ca565b820191906000526020600020905b8154815290600101906020018083116106ad57829003601f168201915b5050505050905082565b6000606060008090505b6002805490508110156108015783600282815481106106f957fe5b90600052602060002090600202016000015414156107f4576002818154811061071e57fe5b9060005260206000209060020201600001546002828154811061073d57fe5b9060005260206000209060020201600101808054600181600116156101000203166002900480601f0160208091040260200160405190810160405280929190818152602001828054600181600116156101000203166002900480156107e35780601f106107b8576101008083540402835291602001916107e3565b820191906000526020600020905b8154815290600101906020018083116107c657829003601f168201915b505050505090509250925050610803565b80806001019150506106de565b505b915091565b60008090505b60028054905081101561088257826002828154811061082957fe5b906000526020600020906002020160000154141561087557816002828154811061084f57fe5b9060005260206000209060020201600101908051906020019061087392919061094f565b505b808060010191505061080e565b505050565b50805460018160011615610100020316600290046000825580601f106108ad57506108cc565b601f0160209004906000526020600020908101906108cb91906109cf565b5b50565b828054600181600116156101000203166002900490600052602060002090601f016020900481019282601f1061091057805160ff191683800117855561093e565b8280016001018555821561093e579182015b8281111561093d578251825591602001919060010190610922565b5b50905061094b91906109cf565b5090565b828054600181600116156101000203166002900490600052602060002090601f016020900481019282601f1061099057805160ff19168380011785556109be565b828001600101855582156109be579182015b828111156109bd5782518255916020019190600101906109a2565b5b5090506109cb91906109cf565b5090565b6109f191905b808211156109ed5760008160009055506001016109d5565b5090565b9056fea165627a7a723058208d4b4baa4cfcde77c0062476a0ec45f3dcae77c4197822a7eb5d8e69231443a40029",
  "source": "pragma solidity >=0.4.18 <0.6.0;\r\n\r\ncontract Crud{\r\n    \r\n    struct User{\r\n        uint id;\r\n        string name;\r\n        \r\n    }\r\n    \r\n    uint public nextId;\r\n    \r\n    mapping (uint => User) public userss;\r\n    User[] public users;  //valores del array\r\n    //mapping (address => User) userStructs\r\n    //address[] public userAddresses;\r\n    \r\n    \r\n    function create(string memory name) public{\r\n        \r\n        users.push(User(nextId,name));\r\n        nextId++;\r\n    }\r\n    \r\n    function read(uint id) view public returns(uint, string memory){\r\n        \r\n        for(uint i=0;i<users.length;i++)\r\n        {\r\n            if(users[i].id==id)\r\n            {\r\n             return(users[i].id,users[i].name);\r\n            }\r\n            \r\n        }\r\n        \r\n    }\r\n    \r\n     function read_size() view public returns(uint){\r\n        \r\n        return(users.length);\r\n         \r\n    }\r\n    \r\n    \r\n    function update(uint id, string memory name) public {\r\n        \r\n        for(uint i=0;i<users.length;i++)\r\n        {\r\n            if(users[i].id==id)\r\n            {\r\n             users[i].name=name;\r\n            }\r\n            \r\n        }\r\n        \r\n    }\r\n    function destroy(uint id) public{\r\n        delete users[id];\r\n    }\r\n    \r\n}",
  "sourcePath": "C:/Users/elias/Desktop/IDS_Progetto_Last/Progetto_IDS/contracts/Crud.sol",
  "compiler": {
    "name": "solc",
    "version": "0.5.8+commit.23d335f2.Emscripten.clang"
  },
  "schemaVersion": "2.0.2",
  "updatedAt": "2019-10-22T10:26:26.773Z"
}