{
  "contractName": "giornaleLavori",
  "abi": [
    {
      "constant": true,
      "inputs": [
        {
          "name": "",
          "type": "uint256"
        }
      ],
      "name": "attrezzaturass",
      "outputs": [
        {
          "name": "tipologia",
          "type": "string"
        },
        {
          "name": "quantita",
          "type": "uint256"
        },
        {
          "name": "data",
          "type": "uint256"
        }
      ],
      "payable": false,
      "stateMutability": "view",
      "type": "function"
    },
    {
      "constant": true,
      "inputs": [
        {
          "name": "",
          "type": "uint256"
        }
      ],
      "name": "operaioss",
      "outputs": [
        {
          "name": "nome",
          "type": "string"
        },
        {
          "name": "cognome",
          "type": "string"
        },
        {
          "name": "qualifica",
          "type": "string"
        },
        {
          "name": "ore",
          "type": "uint256"
        },
        {
          "name": "data",
          "type": "uint256"
        }
      ],
      "payable": false,
      "stateMutability": "view",
      "type": "function"
    },
    {
      "constant": true,
      "inputs": [],
      "name": "nextId",
      "outputs": [
        {
          "name": "",
          "type": "uint256"
        }
      ],
      "payable": false,
      "stateMutability": "view",
      "type": "function"
    },
    {
      "constant": true,
      "inputs": [
        {
          "name": "",
          "type": "uint256"
        }
      ],
      "name": "attrezzaturas",
      "outputs": [
        {
          "name": "tipologia",
          "type": "string"
        },
        {
          "name": "quantita",
          "type": "uint256"
        },
        {
          "name": "data",
          "type": "uint256"
        }
      ],
      "payable": false,
      "stateMutability": "view",
      "type": "function"
    },
    {
      "constant": true,
      "inputs": [
        {
          "name": "",
          "type": "uint256"
        }
      ],
      "name": "giornales",
      "outputs": [
        {
          "name": "no",
          "type": "uint256"
        },
        {
          "name": "data",
          "type": "uint256"
        },
        {
          "name": "descrizioneLocazione",
          "type": "string"
        },
        {
          "name": "allegati",
          "type": "string"
        }
      ],
      "payable": false,
      "stateMutability": "view",
      "type": "function"
    },
    {
      "constant": true,
      "inputs": [
        {
          "name": "",
          "type": "uint256"
        }
      ],
      "name": "giornaless",
      "outputs": [
        {
          "name": "no",
          "type": "uint256"
        },
        {
          "name": "data",
          "type": "uint256"
        },
        {
          "name": "descrizioneLocazione",
          "type": "string"
        },
        {
          "name": "allegati",
          "type": "string"
        }
      ],
      "payable": false,
      "stateMutability": "view",
      "type": "function"
    },
    {
      "constant": true,
      "inputs": [
        {
          "name": "",
          "type": "uint256"
        }
      ],
      "name": "operaios",
      "outputs": [
        {
          "name": "nome",
          "type": "string"
        },
        {
          "name": "cognome",
          "type": "string"
        },
        {
          "name": "qualifica",
          "type": "string"
        },
        {
          "name": "ore",
          "type": "uint256"
        },
        {
          "name": "data",
          "type": "uint256"
        }
      ],
      "payable": false,
      "stateMutability": "view",
      "type": "function"
    },
    {
      "constant": false,
      "inputs": [
        {
          "name": "data",
          "type": "uint256"
        },
        {
          "name": "descrizione",
          "type": "string"
        },
        {
          "name": "allegati",
          "type": "string"
        }
      ],
      "name": "createGiornale",
      "outputs": [],
      "payable": false,
      "stateMutability": "nonpayable",
      "type": "function"
    },
    {
      "constant": true,
      "inputs": [
        {
          "name": "id",
          "type": "uint256"
        }
      ],
      "name": "readGiornale",
      "outputs": [
        {
          "name": "",
          "type": "uint256"
        },
        {
          "name": "",
          "type": "string"
        },
        {
          "name": "",
          "type": "string"
        }
      ],
      "payable": false,
      "stateMutability": "view",
      "type": "function"
    },
    {
      "constant": false,
      "inputs": [
        {
          "name": "id",
          "type": "uint256"
        }
      ],
      "name": "destroy",
      "outputs": [],
      "payable": false,
      "stateMutability": "nonpayable",
      "type": "function"
    },
    {
      "constant": false,
      "inputs": [
        {
          "name": "nome",
          "type": "string"
        },
        {
          "name": "cognome",
          "type": "string"
        },
        {
          "name": "qualifica",
          "type": "string"
        },
        {
          "name": "ore",
          "type": "uint256"
        },
        {
          "name": "data",
          "type": "uint256"
        }
      ],
      "name": "createOperaio",
      "outputs": [],
      "payable": false,
      "stateMutability": "nonpayable",
      "type": "function"
    },
    {
      "constant": true,
      "inputs": [
        {
          "name": "id",
          "type": "uint256"
        }
      ],
      "name": "readOperaio",
      "outputs": [
        {
          "name": "",
          "type": "string"
        },
        {
          "name": "",
          "type": "string"
        },
        {
          "name": "",
          "type": "string"
        },
        {
          "name": "",
          "type": "uint256"
        },
        {
          "name": "",
          "type": "uint256"
        }
      ],
      "payable": false,
      "stateMutability": "view",
      "type": "function"
    },
    {
      "constant": false,
      "inputs": [
        {
          "name": "id",
          "type": "uint256"
        }
      ],
      "name": "destroyOperaio",
      "outputs": [],
      "payable": false,
      "stateMutability": "nonpayable",
      "type": "function"
    },
    {
      "constant": false,
      "inputs": [
        {
          "name": "tipologia",
          "type": "string"
        },
        {
          "name": "quantita",
          "type": "uint256"
        },
        {
          "name": "data",
          "type": "uint256"
        }
      ],
      "name": "createAttrezzatura",
      "outputs": [],
      "payable": false,
      "stateMutability": "nonpayable",
      "type": "function"
    },
    {
      "constant": true,
      "inputs": [
        {
          "name": "id",
          "type": "uint256"
        }
      ],
      "name": "readAttrezzatura",
      "outputs": [
        {
          "name": "",
          "type": "string"
        },
        {
          "name": "",
          "type": "uint256"
        },
        {
          "name": "",
          "type": "uint256"
        }
      ],
      "payable": false,
      "stateMutability": "view",
      "type": "function"
    },
    {
      "constant": false,
      "inputs": [
        {
          "name": "id",
          "type": "uint256"
        }
      ],
      "name": "destroyAttrezzatura",
      "outputs": [],
      "payable": false,
      "stateMutability": "nonpayable",
      "type": "function"
    },
    {
      "constant": true,
      "inputs": [],
      "name": "read_size",
      "outputs": [
        {
          "name": "",
          "type": "uint256"
        },
        {
          "name": "",
          "type": "uint256"
        },
        {
          "name": "",
          "type": "uint256"
        }
      ],
      "payable": false,
      "stateMutability": "view",
      "type": "function"
    }
  ],
  "bytecode": "0x608060405234801561001057600080fd5b5061208b806100206000396000f3006080604052600436106100f1576000357c0100000000000000000000000000000000000000000000000000000000900463ffffffff16806319f34932146100f65780631abc1494146101aa5780631dac3786146102275780631f5cb2a8146102605780633b0e5928146103195780633e020ea6146103cd57806340422137146104e657806361b8ce8c146106725780636d355ddf1461069d57806379aeb3c414610829578063828fa56d146108dd5780638d5178f2146109e657806392e9d16414610a135780639d11877014610b33578063b34ddd4914610b60578063e6a6a10514610b8d578063f88e065f14610cad575b600080fd5b34801561010257600080fd5b5061012160048036038101908080359060200190929190505050610e39565b6040518080602001848152602001838152602001828103825285818151815260200191508051906020019080838360005b8381101561016d578082015181840152602081019050610152565b50505050905090810190601f16801561019a5780820380516001836020036101000a031916815260200191505b5094505050505060405180910390f35b3480156101b657600080fd5b50610225600480360381019080803590602001908201803590602001908080601f01602080910402602001604051908101604052809392919081815260200183838082843782019150505050505091929192908035906020019092919080359060200190929190505050610efb565b005b34801561023357600080fd5b5061023c610f7d565b60405180848152602001838152602001828152602001935050505060405180910390f35b34801561026c57600080fd5b5061031760048036038101908080359060200190929190803590602001908201803590602001908080601f0160208091040260200160405190810160405280939291908181526020018383808284378201915050505050509192919290803590602001908201803590602001908080601f0160208091040260200160405190810160405280939291908181526020018383808284378201915050505050509192919290505050610f9f565b005b34801561032557600080fd5b5061034460048036038101908080359060200190929190505050611057565b6040518080602001848152602001838152602001828103825285818151815260200191508051906020019080838360005b83811015610390578082015181840152602081019050610375565b50505050905090810190601f1680156103bd5780820380516001836020036101000a031916815260200191505b5094505050505060405180910390f35b3480156103d957600080fd5b506103f860048036038101908080359060200190929190505050611165565b604051808481526020018060200180602001838103835285818151815260200191508051906020019080838360005b83811015610442578082015181840152602081019050610427565b50505050905090810190601f16801561046f5780820380516001836020036101000a031916815260200191505b50838103825284818151815260200191508051906020019080838360005b838110156104a857808201518184015260208101905061048d565b50505050905090810190601f1680156104d55780820380516001836020036101000a031916815260200191505b509550505050505060405180910390f35b3480156104f257600080fd5b5061051160048036038101908080359060200190929190505050611318565b60405180806020018060200180602001868152602001858152602001848103845289818151815260200191508051906020019080838360005b8381101561056557808201518184015260208101905061054a565b50505050905090810190601f1680156105925780820380516001836020036101000a031916815260200191505b50848103835288818151815260200191508051906020019080838360005b838110156105cb5780820151818401526020810190506105b0565b50505050905090810190601f1680156105f85780820380516001836020036101000a031916815260200191505b50848103825287818151815260200191508051906020019080838360005b83811015610631578082015181840152602081019050610616565b50505050905090810190601f16801561065e5780820380516001836020036101000a031916815260200191505b509850505050505050505060405180910390f35b34801561067e57600080fd5b50610687611516565b6040518082815260200191505060405180910390f35b3480156106a957600080fd5b506106c86004803603810190808035906020019092919050505061151c565b60405180806020018060200180602001868152602001858152602001848103845289818151815260200191508051906020019080838360005b8381101561071c578082015181840152602081019050610701565b50505050905090810190601f1680156107495780820380516001836020036101000a031916815260200191505b50848103835288818151815260200191508051906020019080838360005b83811015610782578082015181840152602081019050610767565b50505050905090810190601f1680156107af5780820380516001836020036101000a031916815260200191505b50848103825287818151815260200191508051906020019080838360005b838110156107e85780820151818401526020810190506107cd565b50505050905090810190601f1680156108155780820380516001836020036101000a031916815260200191505b509850505050505050505060405180910390f35b34801561083557600080fd5b5061085460048036038101908080359060200190929190505050611787565b6040518080602001848152602001838152602001828103825285818151815260200191508051906020019080838360005b838110156108a0578082015181840152602081019050610885565b50505050905090810190601f1680156108cd5780820380516001836020036101000a031916815260200191505b5094505050505060405180910390f35b3480156108e957600080fd5b506109e4600480360381019080803590602001908201803590602001908080601f0160208091040260200160405190810160405280939291908181526020018383808284378201915050505050509192919290803590602001908201803590602001908080601f0160208091040260200160405190810160405280939291908181526020018383808284378201915050505050509192919290803590602001908201803590602001908080601f01602080910402602001604051908101604052809392919081815260200183838082843782019150505050505091929192908035906020019092919080359060200190929190505050611858565b005b3480156109f257600080fd5b50610a1160048036038101908080359060200190929190505050611922565b005b348015610a1f57600080fd5b50610a3e60048036038101908080359060200190929190505050611985565b604051808581526020018481526020018060200180602001838103835285818151815260200191508051906020019080838360005b83811015610a8e578082015181840152602081019050610a73565b50505050905090810190601f168015610abb5780820380516001836020036101000a031916815260200191505b50838103825284818151815260200191508051906020019080838360005b83811015610af4578082015181840152602081019050610ad9565b50505050905090810190601f168015610b215780820380516001836020036101000a031916815260200191505b50965050505050505060405180910390f35b348015610b3f57600080fd5b50610b5e60048036038101908080359060200190929190505050611af4565b005b348015610b6c57600080fd5b50610b8b60048036038101908080359060200190929190505050611b47565b005b348015610b9957600080fd5b50610bb860048036038101908080359060200190929190505050611b8a565b604051808581526020018481526020018060200180602001838103835285818151815260200191508051906020019080838360005b83811015610c08578082015181840152602081019050610bed565b50505050905090810190601f168015610c355780820380516001836020036101000a031916815260200191505b50838103825284818151815260200191508051906020019080838360005b83811015610c6e578082015181840152602081019050610c53565b50505050905090810190601f168015610c9b5780820380516001836020036101000a031916815260200191505b50965050505050505060405180910390f35b348015610cb957600080fd5b50610cd860048036038101908080359060200190929190505050611cea565b60405180806020018060200180602001868152602001858152602001848103845289818151815260200191508051906020019080838360005b83811015610d2c578082015181840152602081019050610d11565b50505050905090810190601f168015610d595780820380516001836020036101000a031916815260200191505b50848103835288818151815260200191508051906020019080838360005b83811015610d92578082015181840152602081019050610d77565b50505050905090810190601f168015610dbf5780820380516001836020036101000a031916815260200191505b50848103825287818151815260200191508051906020019080838360005b83811015610df8578082015181840152602081019050610ddd565b50505050905090810190601f168015610e255780820380516001836020036101000a031916815260200191505b509850505050505050505060405180910390f35b6005602052806000526040600020600091509050806000018054600181600116156101000203166002900480601f016020809104026020016040519081016040528092919081815260200182805460018160011615610100020316600290048015610ee55780601f10610eba57610100808354040283529160200191610ee5565b820191906000526020600020905b815481529060010190602001808311610ec857829003601f168201915b5050505050908060010154908060020154905083565b600660606040519081016040528085815260200184815260200183815250908060018154018082558091505090600182039060005260206000209060030201600090919290919091506000820151816000019080519060200190610f60929190611ef7565b506020820151816001015560408201518160020155505050505050565b6000806000600280549050600480549050600680549050925092509250909192565b60026080604051908101604052806000548152602001858152602001848152602001838152509080600181540180825580915050906001820390600052602060002090600402016000909192909190915060008201518160000155602082015181600101556040820151816002019080519060200190611020929190611ef7565b50606082015181600301908051906020019061103d929190611ef7565b505050506000808154809291906001019190505550505050565b6060600080611064611f77565b60068581548110151561107357fe5b906000526020600020906003020160606040519081016040529081600082018054600181600116156101000203166002900480601f0160208091040260200160405190810160405280929190818152602001828054600181600116156101000203166002900480156111265780601f106110fb57610100808354040283529160200191611126565b820191906000526020600020905b81548152906001019060200180831161110957829003601f168201915b50505050508152602001600182015481526020016002820154815250509050806000015181602001518260400151829250935093509350509193909250565b6000606080611172611f99565b60028581548110151561118157fe5b9060005260206000209060040201608060405190810160405290816000820154815260200160018201548152602001600282018054600181600116156101000203166002900480601f0160208091040260200160405190810160405280929190818152602001828054600181600116156101000203166002900480156112485780601f1061121d57610100808354040283529160200191611248565b820191906000526020600020905b81548152906001019060200180831161122b57829003601f168201915b50505050508152602001600382018054600181600116156101000203166002900480601f0160208091040260200160405190810160405280929190818152602001828054600181600116156101000203166002900480156112ea5780601f106112bf576101008083540402835291602001916112ea565b820191906000526020600020905b8154815290600101906020018083116112cd57829003601f168201915b5050505050815250509050806020015181604001518260600151819150809050935093509350509193909250565b6003602052806000526040600020600091509050806000018054600181600116156101000203166002900480601f0160208091040260200160405190810160405280929190818152602001828054600181600116156101000203166002900480156113c45780601f10611399576101008083540402835291602001916113c4565b820191906000526020600020905b8154815290600101906020018083116113a757829003601f168201915b505050505090806001018054600181600116156101000203166002900480601f0160208091040260200160405190810160405280929190818152602001828054600181600116156101000203166002900480156114625780601f1061143757610100808354040283529160200191611462565b820191906000526020600020905b81548152906001019060200180831161144557829003601f168201915b505050505090806002018054600181600116156101000203166002900480601f0160208091040260200160405190810160405280929190818152602001828054600181600116156101000203166002900480156115005780601f106114d557610100808354040283529160200191611500565b820191906000526020600020905b8154815290600101906020018083116114e357829003601f168201915b5050505050908060030154908060040154905085565b60005481565b606080606060008061152c611fc2565b60048781548110151561153b57fe5b906000526020600020906005020160a06040519081016040529081600082018054600181600116156101000203166002900480601f0160208091040260200160405190810160405280929190818152602001828054600181600116156101000203166002900480156115ee5780601f106115c3576101008083540402835291602001916115ee565b820191906000526020600020905b8154815290600101906020018083116115d157829003601f168201915b50505050508152602001600182018054600181600116156101000203166002900480601f0160208091040260200160405190810160405280929190818152602001828054600181600116156101000203166002900480156116905780601f1061166557610100808354040283529160200191611690565b820191906000526020600020905b81548152906001019060200180831161167357829003601f168201915b50505050508152602001600282018054600181600116156101000203166002900480601f0160208091040260200160405190810160405280929190818152602001828054600181600116156101000203166002900480156117325780601f1061170757610100808354040283529160200191611732565b820191906000526020600020905b81548152906001019060200180831161171557829003601f168201915b5050505050815260200160038201548152602001600482015481525050905080600001518160200151826040015183606001518460800151849450839350829250955095509550955095505091939590929450565b60068181548110151561179657fe5b9060005260206000209060030201600091509050806000018054600181600116156101000203166002900480601f0160208091040260200160405190810160405280929190818152602001828054600181600116156101000203166002900480156118425780601f1061181757610100808354040283529160200191611842565b820191906000526020600020905b81548152906001019060200180831161182557829003601f168201915b5050505050908060010154908060020154905083565b600460a060405190810160405280878152602001868152602001858152602001848152602001838152509080600181540180825580915050906001820390600052602060002090600502016000909192909190915060008201518160000190805190602001906118c9929190611ef7565b5060208201518160010190805190602001906118e6929190611ef7565b506040820151816002019080519060200190611903929190611ef7565b5060608201518160030155608082015181600401555050505050505050565b60048181548110151561193157fe5b9060005260206000209060050201600080820160006119509190611ff2565b6001820160006119609190611ff2565b6002820160006119709190611ff2565b60038201600090556004820160009055505050565b60028181548110151561199457fe5b9060005260206000209060040201600091509050806000015490806001015490806002018054600181600116156101000203166002900480601f016020809104026020016040519081016040528092919081815260200182805460018160011615610100020316600290048015611a4c5780601f10611a2157610100808354040283529160200191611a4c565b820191906000526020600020905b815481529060010190602001808311611a2f57829003601f168201915b505050505090806003018054600181600116156101000203166002900480601f016020809104026020016040519081016040528092919081815260200182805460018160011615610100020316600290048015611aea5780601f10611abf57610100808354040283529160200191611aea565b820191906000526020600020905b815481529060010190602001808311611acd57829003601f168201915b5050505050905084565b600281815481101515611b0357fe5b90600052602060002090600402016000808201600090556001820160009055600282016000611b329190611ff2565b600382016000611b429190611ff2565b505050565b600681815481101515611b5657fe5b906000526020600020906003020160008082016000611b759190611ff2565b60018201600090556002820160009055505050565b6001602052806000526040600020600091509050806000015490806001015490806002018054600181600116156101000203166002900480601f016020809104026020016040519081016040528092919081815260200182805460018160011615610100020316600290048015611c425780601f10611c1757610100808354040283529160200191611c42565b820191906000526020600020905b815481529060010190602001808311611c2557829003601f168201915b505050505090806003018054600181600116156101000203166002900480601f016020809104026020016040519081016040528092919081815260200182805460018160011615610100020316600290048015611ce05780601f10611cb557610100808354040283529160200191611ce0565b820191906000526020600020905b815481529060010190602001808311611cc357829003601f168201915b5050505050905084565b600481815481101515611cf957fe5b9060005260206000209060050201600091509050806000018054600181600116156101000203166002900480601f016020809104026020016040519081016040528092919081815260200182805460018160011615610100020316600290048015611da55780601f10611d7a57610100808354040283529160200191611da5565b820191906000526020600020905b815481529060010190602001808311611d8857829003601f168201915b505050505090806001018054600181600116156101000203166002900480601f016020809104026020016040519081016040528092919081815260200182805460018160011615610100020316600290048015611e435780601f10611e1857610100808354040283529160200191611e43565b820191906000526020600020905b815481529060010190602001808311611e2657829003601f168201915b505050505090806002018054600181600116156101000203166002900480601f016020809104026020016040519081016040528092919081815260200182805460018160011615610100020316600290048015611ee15780601f10611eb657610100808354040283529160200191611ee1565b820191906000526020600020905b815481529060010190602001808311611ec457829003601f168201915b5050505050908060030154908060040154905085565b828054600181600116156101000203166002900490600052602060002090601f016020900481019282601f10611f3857805160ff1916838001178555611f66565b82800160010185558215611f66579182015b82811115611f65578251825591602001919060010190611f4a565b5b509050611f73919061203a565b5090565b6060604051908101604052806060815260200160008152602001600081525090565b608060405190810160405280600081526020016000815260200160608152602001606081525090565b60a06040519081016040528060608152602001606081526020016060815260200160008152602001600081525090565b50805460018160011615610100020316600290046000825580601f106120185750612037565b601f016020900490600052602060002090810190612036919061203a565b5b50565b61205c91905b80821115612058576000816000905550600101612040565b5090565b905600a165627a7a723058209904c04e471069f869078b997d491187fd99d418510726d92b60e6a457a215c50029",
  "source": "//pragma solidity ^0.4.25;\r\npragma solidity >=0.4.18 <0.6.0;\r\n\r\ncontract giornaleLavori{\r\n    \r\n    struct Giornale {\r\n        uint no;\r\n        uint data;\r\n        string descrizioneLocazione;\r\n        string allegati;//ossservazione\r\n    }\r\n    \r\n    struct Operaio {\r\n        string nome;\r\n        string cognome;\r\n        string qualifica;\r\n        uint ore;\r\n        uint data; //riferimento alla volce del giornale in cui ? presente\r\n    }\r\n    \r\n    struct Attrezzatura {\r\n        string tipologia;\r\n        uint quantita;\r\n        uint data; //riferimento alla volce del giornale in cui ? presente\r\n    }\r\n    \r\n    uint public nextId;\r\n    \r\n    \r\n    \r\n    \r\n    mapping (uint => Giornale) public giornaless;\r\n    Giornale[] public giornales;  //valores del array\r\n    mapping (uint => Operaio) public operaioss;\r\n    Operaio[] public operaios;  //valores del array\r\n    mapping (uint => Attrezzatura) public attrezzaturass;\r\n    Attrezzatura[] public attrezzaturas;  //valores del array\r\n    //mapping (address => User) userStructs\r\n    //address[] public userAddresses;\r\n    \r\n    \r\n    function createGiornale(uint data,string memory descrizione,string memory allegati) public{\r\n        \r\n        giornales.push(Giornale(nextId,data,descrizione,allegati));\r\n        nextId++;\r\n    }\r\n    \r\n    function readGiornale(uint id) view public returns(uint, string memory ,string memory){\r\n        \r\n       Giornale memory gio = giornales[id];\r\n        return (gio.data, gio.descrizioneLocazione, gio.allegati);\r\n        \r\n    }\r\n    \r\n \r\n    // function update(uint id, string memory tariffa,string memory categoriaContabile,string memory descrizione,int128 percentuale,string memory riserva,bool aprovaz,bool valid) public {\r\n        \r\n    //     for(uint i=0;i<misures.length;i++)\r\n    //     {\r\n    //         if(misures[i].id==id)\r\n    //         {\r\n    //          misures[i].tariffa=tariffa;\r\n    //         misures[i].data=now;\r\n    //         misures[i].categoriaContabile=categoriaContabile;\r\n    //         misures[i].descrizione=descrizione;\r\n    //         misures[i].percentuale=percentuale;\r\n    //         misures[i].riserva=riserva;\r\n    //         misures[i].aprovaz=aprovaz;\r\n    //         misures[i].valid=valid;\r\n    //         }\r\n            \r\n    //     }\r\n        \r\n    // }\r\n    function destroy(uint id) public{\r\n        delete giornales[id];\r\n    }\r\n    \r\n    function createOperaio(string memory nome,string memory cognome,string memory qualifica,uint ore,uint data) public{\r\n        \r\n        operaios.push(Operaio(nome,cognome,qualifica,ore,data));\r\n       \r\n    }\r\n    \r\n    function readOperaio(uint id) view public returns(string memory, string memory ,string memory,uint,uint){\r\n        \r\n       Operaio memory op = operaios[id];\r\n        return (op.nome, op.cognome, op.qualifica,op.ore,op.data);\r\n        \r\n    }\r\n    \r\n \r\n    // function update(uint id, string memory tariffa,string memory categoriaContabile,string memory descrizione,int128 percentuale,string memory riserva,bool aprovaz,bool valid) public {\r\n        \r\n    //     for(uint i=0;i<misures.length;i++)\r\n    //     {\r\n    //         if(misures[i].id==id)\r\n    //         {\r\n    //          misures[i].tariffa=tariffa;\r\n    //         misures[i].data=now;\r\n    //         misures[i].categoriaContabile=categoriaContabile;\r\n    //         misures[i].descrizione=descrizione;\r\n    //         misures[i].percentuale=percentuale;\r\n    //         misures[i].riserva=riserva;\r\n    //         misures[i].aprovaz=aprovaz;\r\n    //         misures[i].valid=valid;\r\n    //         }\r\n            \r\n    //     }\r\n        \r\n    // }\r\n    function destroyOperaio(uint id) public{\r\n        delete operaios[id];\r\n    }\r\n    \r\n    \r\n       function createAttrezzatura(string memory tipologia,uint quantita,uint data) public{\r\n        \r\n        attrezzaturas.push(Attrezzatura(tipologia,quantita,data));\r\n        \r\n    }\r\n    \r\n    function readAttrezzatura(uint id) view public returns( string memory ,uint,uint){\r\n        \r\n       Attrezzatura memory at = attrezzaturas[id];\r\n        return (at.tipologia, at.quantita, at.data);\r\n        \r\n    }\r\n    \r\n \r\n    // function update(uint id, string memory tariffa,string memory categoriaContabile,string memory descrizione,int128 percentuale,string memory riserva,bool aprovaz,bool valid) public {\r\n        \r\n    //     for(uint i=0;i<misures.length;i++)\r\n    //     {\r\n    //         if(misures[i].id==id)\r\n    //         {\r\n    //          misures[i].tariffa=tariffa;\r\n    //         misures[i].data=now;\r\n    //         misures[i].categoriaContabile=categoriaContabile;\r\n    //         misures[i].descrizione=descrizione;\r\n    //         misures[i].percentuale=percentuale;\r\n    //         misures[i].riserva=riserva;\r\n    //         misures[i].aprovaz=aprovaz;\r\n    //         misures[i].valid=valid;\r\n    //         }\r\n            \r\n    //     }\r\n        \r\n    // }\r\n    function destroyAttrezzatura(uint id) public{\r\n        delete attrezzaturas[id];\r\n    }\r\n    \r\n    function read_size() view public returns(uint,uint,uint){\r\n        \r\n        return(giornales.length,operaios.length,attrezzaturas.length);\r\n         \r\n    }\r\n\r\n\r\n    \r\n    \r\n}\r\n",
  "sourcePath": "E:\\xampp\\htdocs\\IDS_3\\Progetto_IDS\\contracts\\giornaleLavori.sol",
  "compiler": {
    "name": "solc",
    "version": "0.4.25+commit.59dbf8f1.Emscripten.clang"
  },
  "schemaVersion": "2.0.2",
  "updatedAt": "2019-10-21T15:50:25.552Z"
}