{
  "contractName": "giornaleLavori",
  "abi": [
    {
      "constant": true,
      "inputs": [
        {
          "name": "",
          "type": "uint256"
        }
      ],
      "name": "attrezzaturass",
      "outputs": [
        {
          "name": "tipologia",
          "type": "string"
        },
        {
          "name": "quantita",
          "type": "uint256"
        },
        {
          "name": "data",
          "type": "uint256"
        }
      ],
      "payable": false,
      "stateMutability": "view",
      "type": "function"
    },
    {
      "constant": true,
      "inputs": [
        {
          "name": "",
          "type": "uint256"
        }
      ],
      "name": "operaioss",
      "outputs": [
        {
          "name": "nome",
          "type": "string"
        },
        {
          "name": "cognome",
          "type": "string"
        },
        {
          "name": "qualifica",
          "type": "string"
        },
        {
          "name": "ore",
          "type": "uint256"
        },
        {
          "name": "data",
          "type": "uint256"
        }
      ],
      "payable": false,
      "stateMutability": "view",
      "type": "function"
    },
    {
      "constant": true,
      "inputs": [],
      "name": "nextId",
      "outputs": [
        {
          "name": "",
          "type": "uint256"
        }
      ],
      "payable": false,
      "stateMutability": "view",
      "type": "function"
    },
    {
      "constant": true,
      "inputs": [
        {
          "name": "",
          "type": "uint256"
        }
      ],
      "name": "attrezzaturas",
      "outputs": [
        {
          "name": "tipologia",
          "type": "string"
        },
        {
          "name": "quantita",
          "type": "uint256"
        },
        {
          "name": "data",
          "type": "uint256"
        }
      ],
      "payable": false,
      "stateMutability": "view",
      "type": "function"
    },
    {
      "constant": true,
      "inputs": [
        {
          "name": "",
          "type": "uint256"
        }
      ],
      "name": "giornales",
      "outputs": [
        {
          "name": "no",
          "type": "uint256"
        },
        {
          "name": "data",
          "type": "uint256"
        },
        {
          "name": "descrizioneLocazione",
          "type": "string"
        },
        {
          "name": "allegati",
          "type": "string"
        }
      ],
      "payable": false,
      "stateMutability": "view",
      "type": "function"
    },
    {
      "constant": true,
      "inputs": [
        {
          "name": "",
          "type": "uint256"
        }
      ],
      "name": "giornaless",
      "outputs": [
        {
          "name": "no",
          "type": "uint256"
        },
        {
          "name": "data",
          "type": "uint256"
        },
        {
          "name": "descrizioneLocazione",
          "type": "string"
        },
        {
          "name": "allegati",
          "type": "string"
        }
      ],
      "payable": false,
      "stateMutability": "view",
      "type": "function"
    },
    {
      "constant": true,
      "inputs": [
        {
          "name": "",
          "type": "uint256"
        }
      ],
      "name": "operaios",
      "outputs": [
        {
          "name": "nome",
          "type": "string"
        },
        {
          "name": "cognome",
          "type": "string"
        },
        {
          "name": "qualifica",
          "type": "string"
        },
        {
          "name": "ore",
          "type": "uint256"
        },
        {
          "name": "data",
          "type": "uint256"
        }
      ],
      "payable": false,
      "stateMutability": "view",
      "type": "function"
    },
    {
      "constant": false,
      "inputs": [
        {
          "name": "data",
          "type": "uint256"
        },
        {
          "name": "descrizione",
          "type": "string"
        },
        {
          "name": "allegati",
          "type": "string"
        }
      ],
      "name": "createGiornale",
      "outputs": [],
      "payable": false,
      "stateMutability": "nonpayable",
      "type": "function"
    },
    {
      "constant": true,
      "inputs": [
        {
          "name": "id",
          "type": "uint256"
        }
      ],
      "name": "readGiornale",
      "outputs": [
        {
          "name": "",
          "type": "uint256"
        },
        {
          "name": "",
          "type": "string"
        },
        {
          "name": "",
          "type": "string"
        }
      ],
      "payable": false,
      "stateMutability": "view",
      "type": "function"
    },
    {
      "constant": false,
      "inputs": [
        {
          "name": "id",
          "type": "uint256"
        }
      ],
      "name": "destroy",
      "outputs": [],
      "payable": false,
      "stateMutability": "nonpayable",
      "type": "function"
    },
    {
      "constant": false,
      "inputs": [
        {
          "name": "nome",
          "type": "string"
        },
        {
          "name": "cognome",
          "type": "string"
        },
        {
          "name": "qualifica",
          "type": "string"
        },
        {
          "name": "ore",
          "type": "uint256"
        },
        {
          "name": "data",
          "type": "uint256"
        }
      ],
      "name": "createOperaio",
      "outputs": [],
      "payable": false,
      "stateMutability": "nonpayable",
      "type": "function"
    },
    {
      "constant": true,
      "inputs": [
        {
          "name": "id",
          "type": "uint256"
        }
      ],
      "name": "readOperaio",
      "outputs": [
        {
          "name": "",
          "type": "string"
        },
        {
          "name": "",
          "type": "string"
        },
        {
          "name": "",
          "type": "string"
        },
        {
          "name": "",
          "type": "uint256"
        },
        {
          "name": "",
          "type": "uint256"
        }
      ],
      "payable": false,
      "stateMutability": "view",
      "type": "function"
    },
    {
      "constant": false,
      "inputs": [
        {
          "name": "id",
          "type": "uint256"
        }
      ],
      "name": "destroyOperaio",
      "outputs": [],
      "payable": false,
      "stateMutability": "nonpayable",
      "type": "function"
    },
    {
      "constant": false,
      "inputs": [
        {
          "name": "tipologia",
          "type": "string"
        },
        {
          "name": "quantita",
          "type": "uint256"
        },
        {
          "name": "data",
          "type": "uint256"
        }
      ],
      "name": "createAttrezzatura",
      "outputs": [],
      "payable": false,
      "stateMutability": "nonpayable",
      "type": "function"
    },
    {
      "constant": true,
      "inputs": [
        {
          "name": "id",
          "type": "uint256"
        }
      ],
      "name": "readAttrezzatura",
      "outputs": [
        {
          "name": "",
          "type": "string"
        },
        {
          "name": "",
          "type": "uint256"
        },
        {
          "name": "",
          "type": "uint256"
        }
      ],
      "payable": false,
      "stateMutability": "view",
      "type": "function"
    },
    {
      "constant": false,
      "inputs": [
        {
          "name": "id",
          "type": "uint256"
        }
      ],
      "name": "destroyAttrezzatura",
      "outputs": [],
      "payable": false,
      "stateMutability": "nonpayable",
      "type": "function"
    },
    {
      "constant": true,
      "inputs": [],
      "name": "read_size",
      "outputs": [
        {
          "name": "",
          "type": "uint256"
        },
        {
          "name": "",
          "type": "uint256"
        },
        {
          "name": "",
          "type": "uint256"
        }
      ],
      "payable": false,
      "stateMutability": "view",
      "type": "function"
    }
  ],
  "bytecode": "0x608060405234801561001057600080fd5b50612265806100206000396000f3fe608060405234801561001057600080fd5b506004361061010b5760003560e01c80636d355ddf116100a257806392e9d1641161007157806392e9d16414610c035780639d11877014610d24578063b34ddd4914610d52578063e6a6a10514610d80578063f88e065f14610ea15761010b565b80636d355ddf1461079657806379aeb3c414610923578063828fa56d146109d85780638d5178f214610bd55761010b565b80633b0e5928116100de5780633b0e59281461041c5780633e020ea6146104d157806340422137146105eb57806361b8ce8c146107785761010b565b806319f34932146101105780631abc1494146101c55780631dac3786146102945780631f5cb2a8146102c0575b600080fd5b61013c6004803603602081101561012657600080fd5b810190808035906020019092919050505061102e565b6040518080602001848152602001838152602001828103825285818151815260200191508051906020019080838360005b8381101561018857808201518184015260208101905061016d565b50505050905090810190601f1680156101b55780820380516001836020036101000a031916815260200191505b5094505050505060405180910390f35b610292600480360360608110156101db57600080fd5b81019080803590602001906401000000008111156101f857600080fd5b82018360208201111561020a57600080fd5b8035906020019184600183028401116401000000008311171561022c57600080fd5b91908080601f016020809104026020016040519081016040528093929190818152602001838380828437600081840152601f19601f82011690508083019250505050505050919291929080359060200190929190803590602001909291905050506110f0565b005b61029c611171565b60405180848152602001838152602001828152602001935050505060405180910390f35b61041a600480360360608110156102d657600080fd5b8101908080359060200190929190803590602001906401000000008111156102fd57600080fd5b82018360208201111561030f57600080fd5b8035906020019184600183028401116401000000008311171561033157600080fd5b91908080601f016020809104026020016040519081016040528093929190818152602001838380828437600081840152601f19601f8201169050808301925050505050505091929192908035906020019064010000000081111561039457600080fd5b8201836020820111156103a657600080fd5b803590602001918460018302840111640100000000831117156103c857600080fd5b91908080601f016020809104026020016040519081016040528093929190818152602001838380828437600081840152601f19601f820116905080830192505050505050509192919290505050611193565b005b6104486004803603602081101561043257600080fd5b810190808035906020019092919050505061124a565b6040518080602001848152602001838152602001828103825285818151815260200191508051906020019080838360005b83811015610494578082015181840152602081019050610479565b50505050905090810190601f1680156104c15780820380516001836020036101000a031916815260200191505b5094505050505060405180910390f35b6104fd600480360360208110156104e757600080fd5b8101908080359060200190929190505050611355565b604051808481526020018060200180602001838103835285818151815260200191508051906020019080838360005b8381101561054757808201518184015260208101905061052c565b50505050905090810190601f1680156105745780820380516001836020036101000a031916815260200191505b50838103825284818151815260200191508051906020019080838360005b838110156105ad578082015181840152602081019050610592565b50505050905090810190601f1680156105da5780820380516001836020036101000a031916815260200191505b509550505050505060405180910390f35b6106176004803603602081101561060157600080fd5b8101908080359060200190929190505050611505565b60405180806020018060200180602001868152602001858152602001848103845289818151815260200191508051906020019080838360005b8381101561066b578082015181840152602081019050610650565b50505050905090810190601f1680156106985780820380516001836020036101000a031916815260200191505b50848103835288818151815260200191508051906020019080838360005b838110156106d15780820151818401526020810190506106b6565b50505050905090810190601f1680156106fe5780820380516001836020036101000a031916815260200191505b50848103825287818151815260200191508051906020019080838360005b8381101561073757808201518184015260208101905061071c565b50505050905090810190601f1680156107645780820380516001836020036101000a031916815260200191505b509850505050505050505060405180910390f35b610780611703565b6040518082815260200191505060405180910390f35b6107c2600480360360208110156107ac57600080fd5b8101908080359060200190929190505050611709565b60405180806020018060200180602001868152602001858152602001848103845289818151815260200191508051906020019080838360005b838110156108165780820151818401526020810190506107fb565b50505050905090810190601f1680156108435780820380516001836020036101000a031916815260200191505b50848103835288818151815260200191508051906020019080838360005b8381101561087c578082015181840152602081019050610861565b50505050905090810190601f1680156108a95780820380516001836020036101000a031916815260200191505b50848103825287818151815260200191508051906020019080838360005b838110156108e25780820151818401526020810190506108c7565b50505050905090810190601f16801561090f5780820380516001836020036101000a031916815260200191505b509850505050505050505060405180910390f35b61094f6004803603602081101561093957600080fd5b8101908080359060200190929190505050611971565b6040518080602001848152602001838152602001828103825285818151815260200191508051906020019080838360005b8381101561099b578082015181840152602081019050610980565b50505050905090810190601f1680156109c85780820380516001836020036101000a031916815260200191505b5094505050505060405180910390f35b610bd3600480360360a08110156109ee57600080fd5b8101908080359060200190640100000000811115610a0b57600080fd5b820183602082011115610a1d57600080fd5b80359060200191846001830284011164010000000083111715610a3f57600080fd5b91908080601f016020809104026020016040519081016040528093929190818152602001838380828437600081840152601f19601f82011690508083019250505050505050919291929080359060200190640100000000811115610aa257600080fd5b820183602082011115610ab457600080fd5b80359060200191846001830284011164010000000083111715610ad657600080fd5b91908080601f016020809104026020016040519081016040528093929190818152602001838380828437600081840152601f19601f82011690508083019250505050505050919291929080359060200190640100000000811115610b3957600080fd5b820183602082011115610b4b57600080fd5b80359060200191846001830284011164010000000083111715610b6d57600080fd5b91908080601f016020809104026020016040519081016040528093929190818152602001838380828437600081840152601f19601f8201169050808301925050505050505091929192908035906020019092919080359060200190929190505050611a40565b005b610c0160048036036020811015610beb57600080fd5b8101908080359060200190929190505050611b09565b005b610c2f60048036036020811015610c1957600080fd5b8101908080359060200190929190505050611b6a565b604051808581526020018481526020018060200180602001838103835285818151815260200191508051906020019080838360005b83811015610c7f578082015181840152602081019050610c64565b50505050905090810190601f168015610cac5780820380516001836020036101000a031916815260200191505b50838103825284818151815260200191508051906020019080838360005b83811015610ce5578082015181840152602081019050610cca565b50505050905090810190601f168015610d125780820380516001836020036101000a031916815260200191505b50965050505050505060405180910390f35b610d5060048036036020811015610d3a57600080fd5b8101908080359060200190929190505050611cd7565b005b610d7e60048036036020811015610d6857600080fd5b8101908080359060200190929190505050611d28565b005b610dac60048036036020811015610d9657600080fd5b8101908080359060200190929190505050611d69565b604051808581526020018481526020018060200180602001838103835285818151815260200191508051906020019080838360005b83811015610dfc578082015181840152602081019050610de1565b50505050905090810190601f168015610e295780820380516001836020036101000a031916815260200191505b50838103825284818151815260200191508051906020019080838360005b83811015610e62578082015181840152602081019050610e47565b50505050905090810190601f168015610e8f5780820380516001836020036101000a031916815260200191505b50965050505050505060405180910390f35b610ecd60048036036020811015610eb757600080fd5b8101908080359060200190929190505050611ec9565b60405180806020018060200180602001868152602001858152602001848103845289818151815260200191508051906020019080838360005b83811015610f21578082015181840152602081019050610f06565b50505050905090810190601f168015610f4e5780820380516001836020036101000a031916815260200191505b50848103835288818151815260200191508051906020019080838360005b83811015610f87578082015181840152602081019050610f6c565b50505050905090810190601f168015610fb45780820380516001836020036101000a031916815260200191505b50848103825287818151815260200191508051906020019080838360005b83811015610fed578082015181840152602081019050610fd2565b50505050905090810190601f16801561101a5780820380516001836020036101000a031916815260200191505b509850505050505050505060405180910390f35b6005602052806000526040600020600091509050806000018054600181600116156101000203166002900480601f0160208091040260200160405190810160405280929190818152602001828054600181600116156101000203166002900480156110da5780601f106110af576101008083540402835291602001916110da565b820191906000526020600020905b8154815290600101906020018083116110bd57829003601f168201915b5050505050908060010154908060020154905083565b60066040518060600160405280858152602001848152602001838152509080600181540180825580915050906001820390600052602060002090600302016000909192909190915060008201518160000190805190602001906111549291906120d4565b506020820151816001015560408201518160020155505050505050565b6000806000600280549050600480549050600680549050925092509250909192565b6002604051806080016040528060005481526020018581526020018481526020018381525090806001815401808255809150509060018203906000526020600020906004020160009091929091909150600082015181600001556020820151816001015560408201518160020190805190602001906112139291906120d4565b5060608201518160030190805190602001906112309291906120d4565b505050506000808154809291906001019190505550505050565b6060600080611257612154565b6006858154811061126457fe5b9060005260206000209060030201604051806060016040529081600082018054600181600116156101000203166002900480601f0160208091040260200160405190810160405280929190818152602001828054600181600116156101000203166002900480156113165780601f106112eb57610100808354040283529160200191611316565b820191906000526020600020905b8154815290600101906020018083116112f957829003601f168201915b50505050508152602001600182015481526020016002820154815250509050806000015181602001518260400151829250935093509350509193909250565b6000606080611362612175565b6002858154811061136f57fe5b90600052602060002090600402016040518060800160405290816000820154815260200160018201548152602001600282018054600181600116156101000203166002900480601f0160208091040260200160405190810160405280929190818152602001828054600181600116156101000203166002900480156114355780601f1061140a57610100808354040283529160200191611435565b820191906000526020600020905b81548152906001019060200180831161141857829003601f168201915b50505050508152602001600382018054600181600116156101000203166002900480601f0160208091040260200160405190810160405280929190818152602001828054600181600116156101000203166002900480156114d75780601f106114ac576101008083540402835291602001916114d7565b820191906000526020600020905b8154815290600101906020018083116114ba57829003601f168201915b5050505050815250509050806020015181604001518260600151819150809050935093509350509193909250565b6003602052806000526040600020600091509050806000018054600181600116156101000203166002900480601f0160208091040260200160405190810160405280929190818152602001828054600181600116156101000203166002900480156115b15780601f10611586576101008083540402835291602001916115b1565b820191906000526020600020905b81548152906001019060200180831161159457829003601f168201915b505050505090806001018054600181600116156101000203166002900480601f01602080910402602001604051908101604052809291908181526020018280546001816001161561010002031660029004801561164f5780601f106116245761010080835404028352916020019161164f565b820191906000526020600020905b81548152906001019060200180831161163257829003601f168201915b505050505090806002018054600181600116156101000203166002900480601f0160208091040260200160405190810160405280929190818152602001828054600181600116156101000203166002900480156116ed5780601f106116c2576101008083540402835291602001916116ed565b820191906000526020600020905b8154815290600101906020018083116116d057829003601f168201915b5050505050908060030154908060040154905085565b60005481565b606080606060008061171961219d565b6004878154811061172657fe5b90600052602060002090600502016040518060a0016040529081600082018054600181600116156101000203166002900480601f0160208091040260200160405190810160405280929190818152602001828054600181600116156101000203166002900480156117d85780601f106117ad576101008083540402835291602001916117d8565b820191906000526020600020905b8154815290600101906020018083116117bb57829003601f168201915b50505050508152602001600182018054600181600116156101000203166002900480601f01602080910402602001604051908101604052809291908181526020018280546001816001161561010002031660029004801561187a5780601f1061184f5761010080835404028352916020019161187a565b820191906000526020600020905b81548152906001019060200180831161185d57829003601f168201915b50505050508152602001600282018054600181600116156101000203166002900480601f01602080910402602001604051908101604052809291908181526020018280546001816001161561010002031660029004801561191c5780601f106118f15761010080835404028352916020019161191c565b820191906000526020600020905b8154815290600101906020018083116118ff57829003601f168201915b5050505050815260200160038201548152602001600482015481525050905080600001518160200151826040015183606001518460800151849450839350829250955095509550955095505091939590929450565b6006818154811061197e57fe5b9060005260206000209060030201600091509050806000018054600181600116156101000203166002900480601f016020809104026020016040519081016040528092919081815260200182805460018160011615610100020316600290048015611a2a5780601f106119ff57610100808354040283529160200191611a2a565b820191906000526020600020905b815481529060010190602001808311611a0d57829003601f168201915b5050505050908060010154908060020154905083565b60046040518060a0016040528087815260200186815260200185815260200184815260200183815250908060018154018082558091505090600182039060005260206000209060050201600090919290919091506000820151816000019080519060200190611ab09291906120d4565b506020820151816001019080519060200190611acd9291906120d4565b506040820151816002019080519060200190611aea9291906120d4565b5060608201518160030155608082015181600401555050505050505050565b60048181548110611b1657fe5b906000526020600020906005020160008082016000611b3591906121cc565b600182016000611b4591906121cc565b600282016000611b5591906121cc565b60038201600090556004820160009055505050565b60028181548110611b7757fe5b9060005260206000209060040201600091509050806000015490806001015490806002018054600181600116156101000203166002900480601f016020809104026020016040519081016040528092919081815260200182805460018160011615610100020316600290048015611c2f5780601f10611c0457610100808354040283529160200191611c2f565b820191906000526020600020905b815481529060010190602001808311611c1257829003601f168201915b505050505090806003018054600181600116156101000203166002900480601f016020809104026020016040519081016040528092919081815260200182805460018160011615610100020316600290048015611ccd5780601f10611ca257610100808354040283529160200191611ccd565b820191906000526020600020905b815481529060010190602001808311611cb057829003601f168201915b5050505050905084565b60028181548110611ce457fe5b90600052602060002090600402016000808201600090556001820160009055600282016000611d1391906121cc565b600382016000611d2391906121cc565b505050565b60068181548110611d3557fe5b906000526020600020906003020160008082016000611d5491906121cc565b60018201600090556002820160009055505050565b6001602052806000526040600020600091509050806000015490806001015490806002018054600181600116156101000203166002900480601f016020809104026020016040519081016040528092919081815260200182805460018160011615610100020316600290048015611e215780601f10611df657610100808354040283529160200191611e21565b820191906000526020600020905b815481529060010190602001808311611e0457829003601f168201915b505050505090806003018054600181600116156101000203166002900480601f016020809104026020016040519081016040528092919081815260200182805460018160011615610100020316600290048015611ebf5780601f10611e9457610100808354040283529160200191611ebf565b820191906000526020600020905b815481529060010190602001808311611ea257829003601f168201915b5050505050905084565b60048181548110611ed657fe5b9060005260206000209060050201600091509050806000018054600181600116156101000203166002900480601f016020809104026020016040519081016040528092919081815260200182805460018160011615610100020316600290048015611f825780601f10611f5757610100808354040283529160200191611f82565b820191906000526020600020905b815481529060010190602001808311611f6557829003601f168201915b505050505090806001018054600181600116156101000203166002900480601f0160208091040260200160405190810160405280929190818152602001828054600181600116156101000203166002900480156120205780601f10611ff557610100808354040283529160200191612020565b820191906000526020600020905b81548152906001019060200180831161200357829003601f168201915b505050505090806002018054600181600116156101000203166002900480601f0160208091040260200160405190810160405280929190818152602001828054600181600116156101000203166002900480156120be5780601f10612093576101008083540402835291602001916120be565b820191906000526020600020905b8154815290600101906020018083116120a157829003601f168201915b5050505050908060030154908060040154905085565b828054600181600116156101000203166002900490600052602060002090601f016020900481019282601f1061211557805160ff1916838001178555612143565b82800160010185558215612143579182015b82811115612142578251825591602001919060010190612127565b5b5090506121509190612214565b5090565b60405180606001604052806060815260200160008152602001600081525090565b6040518060800160405280600081526020016000815260200160608152602001606081525090565b6040518060a0016040528060608152602001606081526020016060815260200160008152602001600081525090565b50805460018160011615610100020316600290046000825580601f106121f25750612211565b601f0160209004906000526020600020908101906122109190612214565b5b50565b61223691905b8082111561223257600081600090555060010161221a565b5090565b9056fea165627a7a72305820c4af31293abbf1d44efd947d6be6f3d205e9121fe50aefa81d6682bccdad74440029",
  "source": "//pragma solidity ^0.4.25;\r\npragma solidity >=0.4.18 <0.6.0;\r\n\r\ncontract giornaleLavori{\r\n    \r\n    struct Giornale {\r\n        uint no;\r\n        uint data;\r\n        string descrizioneLocazione;\r\n        string allegati;//ossservazione\r\n    }\r\n    \r\n    struct Operaio {\r\n        string nome;\r\n        string cognome;\r\n        string qualifica;\r\n        uint ore;\r\n        uint data; //riferimento alla volce del giornale in cui ? presente\r\n    }\r\n    \r\n    struct Attrezzatura {\r\n        string tipologia;\r\n        uint quantita;\r\n        uint data; //riferimento alla volce del giornale in cui ? presente\r\n    }\r\n    \r\n    uint public nextId;\r\n    \r\n    \r\n    \r\n    \r\n    mapping (uint => Giornale) public giornaless;\r\n    Giornale[] public giornales;  //valores del array\r\n    mapping (uint => Operaio) public operaioss;\r\n    Operaio[] public operaios;  //valores del array\r\n    mapping (uint => Attrezzatura) public attrezzaturass;\r\n    Attrezzatura[] public attrezzaturas;  //valores del array\r\n    //mapping (address => User) userStructs\r\n    //address[] public userAddresses;\r\n    \r\n    \r\n    function createGiornale(uint data,string memory descrizione,string memory allegati) public{\r\n        \r\n        giornales.push(Giornale(nextId,data,descrizione,allegati));\r\n        nextId++;\r\n    }\r\n    \r\n    function readGiornale(uint id) view public returns(uint, string memory ,string memory){\r\n        \r\n       Giornale memory gio = giornales[id];\r\n        return (gio.data, gio.descrizioneLocazione, gio.allegati);\r\n        \r\n    }\r\n    \r\n \r\n    // function update(uint id, string memory tariffa,string memory categoriaContabile,string memory descrizione,int128 percentuale,string memory riserva,bool aprovaz,bool valid) public {\r\n        \r\n    //     for(uint i=0;i<misures.length;i++)\r\n    //     {\r\n    //         if(misures[i].id==id)\r\n    //         {\r\n    //          misures[i].tariffa=tariffa;\r\n    //         misures[i].data=now;\r\n    //         misures[i].categoriaContabile=categoriaContabile;\r\n    //         misures[i].descrizione=descrizione;\r\n    //         misures[i].percentuale=percentuale;\r\n    //         misures[i].riserva=riserva;\r\n    //         misures[i].aprovaz=aprovaz;\r\n    //         misures[i].valid=valid;\r\n    //         }\r\n            \r\n    //     }\r\n        \r\n    // }\r\n    function destroy(uint id) public{\r\n        delete giornales[id];\r\n    }\r\n    \r\n    function createOperaio(string memory nome,string memory cognome,string memory qualifica,uint ore,uint data) public{\r\n        \r\n        operaios.push(Operaio(nome,cognome,qualifica,ore,data));\r\n       \r\n    }\r\n    \r\n    function readOperaio(uint id) view public returns(string memory, string memory ,string memory,uint,uint){\r\n        \r\n       Operaio memory op = operaios[id];\r\n        return (op.nome, op.cognome, op.qualifica,op.ore,op.data);\r\n        \r\n    }\r\n    \r\n \r\n    // function update(uint id, string memory tariffa,string memory categoriaContabile,string memory descrizione,int128 percentuale,string memory riserva,bool aprovaz,bool valid) public {\r\n        \r\n    //     for(uint i=0;i<misures.length;i++)\r\n    //     {\r\n    //         if(misures[i].id==id)\r\n    //         {\r\n    //          misures[i].tariffa=tariffa;\r\n    //         misures[i].data=now;\r\n    //         misures[i].categoriaContabile=categoriaContabile;\r\n    //         misures[i].descrizione=descrizione;\r\n    //         misures[i].percentuale=percentuale;\r\n    //         misures[i].riserva=riserva;\r\n    //         misures[i].aprovaz=aprovaz;\r\n    //         misures[i].valid=valid;\r\n    //         }\r\n            \r\n    //     }\r\n        \r\n    // }\r\n    function destroyOperaio(uint id) public{\r\n        delete operaios[id];\r\n    }\r\n    \r\n    \r\n       function createAttrezzatura(string memory tipologia,uint quantita,uint data) public{\r\n        \r\n        attrezzaturas.push(Attrezzatura(tipologia,quantita,data));\r\n        \r\n    }\r\n    \r\n    function readAttrezzatura(uint id) view public returns( string memory ,uint,uint){\r\n        \r\n       Attrezzatura memory at = attrezzaturas[id];\r\n        return (at.tipologia, at.quantita, at.data);\r\n        \r\n    }\r\n    \r\n \r\n    // function update(uint id, string memory tariffa,string memory categoriaContabile,string memory descrizione,int128 percentuale,string memory riserva,bool aprovaz,bool valid) public {\r\n        \r\n    //     for(uint i=0;i<misures.length;i++)\r\n    //     {\r\n    //         if(misures[i].id==id)\r\n    //         {\r\n    //          misures[i].tariffa=tariffa;\r\n    //         misures[i].data=now;\r\n    //         misures[i].categoriaContabile=categoriaContabile;\r\n    //         misures[i].descrizione=descrizione;\r\n    //         misures[i].percentuale=percentuale;\r\n    //         misures[i].riserva=riserva;\r\n    //         misures[i].aprovaz=aprovaz;\r\n    //         misures[i].valid=valid;\r\n    //         }\r\n            \r\n    //     }\r\n        \r\n    // }\r\n    function destroyAttrezzatura(uint id) public{\r\n        delete attrezzaturas[id];\r\n    }\r\n    \r\n    function read_size() view public returns(uint,uint,uint){\r\n        \r\n        return(giornales.length,operaios.length,attrezzaturas.length);\r\n         \r\n    }\r\n\r\n\r\n    \r\n    \r\n}\r\n",
  "sourcePath": "C:/Users/elias/Desktop/IDS_Progetto_Last/Progetto_IDS/contracts/giornaleLavori.sol",
  "compiler": {
    "name": "solc",
    "version": "0.5.8+commit.23d335f2.Emscripten.clang"
  },
  "schemaVersion": "3.0.14",
  "updatedAt": "2019-10-22T11:53:40.690Z",
  "devdoc": {
    "methods": {}
  },
  "userdoc": {
    "methods": {}
  }
}