{
  "contractName": "librettoMisure",
  "abi": [
    {
      "constant": true,
      "inputs": [
        {
          "name": "",
          "type": "uint256"
        }
      ],
      "name": "misures",
      "outputs": [
        {
          "name": "id",
          "type": "uint256"
        },
        {
          "name": "tariffa",
          "type": "string"
        },
        {
          "name": "data",
          "type": "uint256"
        },
        {
          "name": "categoriaContabile",
          "type": "string"
        },
        {
          "name": "descrizione",
          "type": "string"
        },
        {
          "name": "percentuale",
          "type": "int128"
        },
        {
          "name": "riserva",
          "type": "string"
        },
        {
          "name": "aprovaz",
          "type": "bool"
        },
        {
          "name": "valid",
          "type": "bool"
        }
      ],
      "payable": false,
      "stateMutability": "view",
      "type": "function"
    },
    {
      "constant": true,
      "inputs": [
        {
          "name": "",
          "type": "uint256"
        }
      ],
      "name": "misuress",
      "outputs": [
        {
          "name": "id",
          "type": "uint256"
        },
        {
          "name": "tariffa",
          "type": "string"
        },
        {
          "name": "data",
          "type": "uint256"
        },
        {
          "name": "categoriaContabile",
          "type": "string"
        },
        {
          "name": "descrizione",
          "type": "string"
        },
        {
          "name": "percentuale",
          "type": "int128"
        },
        {
          "name": "riserva",
          "type": "string"
        },
        {
          "name": "aprovaz",
          "type": "bool"
        },
        {
          "name": "valid",
          "type": "bool"
        }
      ],
      "payable": false,
      "stateMutability": "view",
      "type": "function"
    },
    {
      "constant": true,
      "inputs": [],
      "name": "nextId",
      "outputs": [
        {
          "name": "",
          "type": "uint256"
        }
      ],
      "payable": false,
      "stateMutability": "view",
      "type": "function"
    },
    {
      "constant": false,
      "inputs": [
        {
          "name": "tariffa",
          "type": "string"
        },
        {
          "name": "categoriaContabile",
          "type": "string"
        },
        {
          "name": "descrizione",
          "type": "string"
        },
        {
          "name": "percentuale",
          "type": "int128"
        },
        {
          "name": "riserva",
          "type": "string"
        }
      ],
      "name": "create",
      "outputs": [],
      "payable": false,
      "stateMutability": "nonpayable",
      "type": "function"
    },
    {
      "constant": true,
      "inputs": [
        {
          "name": "id",
          "type": "uint256"
        }
      ],
      "name": "read",
      "outputs": [
        {
          "name": "",
          "type": "uint256"
        },
        {
          "name": "",
          "type": "string"
        },
        {
          "name": "",
          "type": "uint256"
        },
        {
          "name": "",
          "type": "string"
        },
        {
          "name": "",
          "type": "string"
        },
        {
          "name": "",
          "type": "int128"
        },
        {
          "name": "",
          "type": "string"
        },
        {
          "name": "",
          "type": "bool"
        },
        {
          "name": "",
          "type": "bool"
        }
      ],
      "payable": false,
      "stateMutability": "view",
      "type": "function"
    },
    {
      "constant": true,
      "inputs": [],
      "name": "read_size",
      "outputs": [
        {
          "name": "",
          "type": "uint256"
        }
      ],
      "payable": false,
      "stateMutability": "view",
      "type": "function"
    },
    {
      "constant": false,
      "inputs": [
        {
          "name": "id",
          "type": "uint256"
        },
        {
          "name": "tariffa",
          "type": "string"
        },
        {
          "name": "categoriaContabile",
          "type": "string"
        },
        {
          "name": "descrizione",
          "type": "string"
        },
        {
          "name": "percentuale",
          "type": "int128"
        },
        {
          "name": "riserva",
          "type": "string"
        },
        {
          "name": "aprovaz",
          "type": "bool"
        },
        {
          "name": "valid",
          "type": "bool"
        }
      ],
      "name": "update",
      "outputs": [],
      "payable": false,
      "stateMutability": "nonpayable",
      "type": "function"
    },
    {
      "constant": false,
      "inputs": [
        {
          "name": "id",
          "type": "uint256"
        }
      ],
      "name": "destroy",
      "outputs": [],
      "payable": false,
      "stateMutability": "nonpayable",
      "type": "function"
    },
    {
      "constant": true,
      "inputs": [],
      "name": "prueba",
      "outputs": [
        {
          "name": "",
          "type": "uint256"
        }
      ],
      "payable": false,
      "stateMutability": "view",
      "type": "function"
    }
  ],
  "bytecode": "0x608060405234801561001057600080fd5b50611a6a806100206000396000f300608060405260043610610099576000357c0100000000000000000000000000000000000000000000000000000000900463ffffffff1680630ae86c151461009e5780631a75162c146102b95780631dac3786146104d457806361b8ce8c146104ff5780637cb5946d1461052a5780638c836560146105555780639d118770146106bf578063dd8bc186146106ec578063ed2e5a9714610834575b600080fd5b3480156100aa57600080fd5b506100c960048036038101908080359060200190929190505050610a4f565b604051808a815260200180602001898152602001806020018060200188600f0b600f0b815260200180602001871515151581526020018615151515815260200185810385528d818151815260200191508051906020019080838360005b83811015610141578082015181840152602081019050610126565b50505050905090810190601f16801561016e5780820380516001836020036101000a031916815260200191505b5085810384528b818151815260200191508051906020019080838360005b838110156101a757808201518184015260208101905061018c565b50505050905090810190601f1680156101d45780820380516001836020036101000a031916815260200191505b5085810383528a818151815260200191508051906020019080838360005b8381101561020d5780820151818401526020810190506101f2565b50505050905090810190601f16801561023a5780820380516001836020036101000a031916815260200191505b50858103825288818151815260200191508051906020019080838360005b83811015610273578082015181840152602081019050610258565b50505050905090810190601f1680156102a05780820380516001836020036101000a031916815260200191505b509d505050505050505050505050505060405180910390f35b3480156102c557600080fd5b506102e460048036038101908080359060200190929190505050610d33565b604051808a815260200180602001898152602001806020018060200188600f0b600f0b815260200180602001871515151581526020018615151515815260200185810385528d818151815260200191508051906020019080838360005b8381101561035c578082015181840152602081019050610341565b50505050905090810190601f1680156103895780820380516001836020036101000a031916815260200191505b5085810384528b818151815260200191508051906020019080838360005b838110156103c25780820151818401526020810190506103a7565b50505050905090810190601f1680156103ef5780820380516001836020036101000a031916815260200191505b5085810383528a818151815260200191508051906020019080838360005b8381101561042857808201518184015260208101905061040d565b50505050905090810190601f1680156104555780820380516001836020036101000a031916815260200191505b50858103825288818151815260200191508051906020019080838360005b8381101561048e578082015181840152602081019050610473565b50505050905090810190601f1680156104bb5780820380516001836020036101000a031916815260200191505b509d505050505050505050505050505060405180910390f35b3480156104e057600080fd5b506104e9611008565b6040518082815260200191505060405180910390f35b34801561050b57600080fd5b50610514611015565b6040518082815260200191505060405180910390f35b34801561053657600080fd5b5061053f61101b565b6040518082815260200191505060405180910390f35b34801561056157600080fd5b506106bd60048036038101908080359060200190929190803590602001908201803590602001908080601f0160208091040260200160405190810160405280939291908181526020018383808284378201915050505050509192919290803590602001908201803590602001908080601f0160208091040260200160405190810160405280939291908181526020018383808284378201915050505050509192919290803590602001908201803590602001908080601f01602080910402602001604051908101604052809392919081815260200183838082843782019150505050505091929192908035600f0b9060200190929190803590602001908201803590602001908080601f0160208091040260200160405190810160405280939291908181526020018383808284378201915050505050509192919290803515159060200190929190803515159060200190929190505050611023565b005b3480156106cb57600080fd5b506106ea6004803603810190808035906020019092919050505061123a565b005b3480156106f857600080fd5b50610832600480360381019080803590602001908201803590602001908080601f0160208091040260200160405190810160405280939291908181526020018383808284378201915050505050509192919290803590602001908201803590602001908080601f0160208091040260200160405190810160405280939291908181526020018383808284378201915050505050509192919290803590602001908201803590602001908080601f01602080910402602001604051908101604052809392919081815260200183838082843782019150505050505091929192908035600f0b9060200190929190803590602001908201803590602001908080601f01602080910402602001604051908101604052809392919081815260200183838082843782019150505050505091929192905050506112f8565b005b34801561084057600080fd5b5061085f60048036038101908080359060200190929190505050611497565b604051808a815260200180602001898152602001806020018060200188600f0b600f0b815260200180602001871515151581526020018615151515815260200185810385528d818151815260200191508051906020019080838360005b838110156108d75780820151818401526020810190506108bc565b50505050905090810190601f1680156109045780820380516001836020036101000a031916815260200191505b5085810384528b818151815260200191508051906020019080838360005b8381101561093d578082015181840152602081019050610922565b50505050905090810190601f16801561096a5780820380516001836020036101000a031916815260200191505b5085810383528a818151815260200191508051906020019080838360005b838110156109a3578082015181840152602081019050610988565b50505050905090810190601f1680156109d05780820380516001836020036101000a031916815260200191505b50858103825288818151815260200191508051906020019080838360005b83811015610a095780820151818401526020810190506109ee565b50505050905090810190601f168015610a365780820380516001836020036101000a031916815260200191505b509d505050505050505050505050505060405180910390f35b600281815481101515610a5e57fe5b9060005260206000209060080201600091509050806000015490806001018054600181600116156101000203166002900480601f016020809104026020016040519081016040528092919081815260200182805460018160011615610100020316600290048015610b105780601f10610ae557610100808354040283529160200191610b10565b820191906000526020600020905b815481529060010190602001808311610af357829003601f168201915b505050505090806002015490806003018054600181600116156101000203166002900480601f016020809104026020016040519081016040528092919081815260200182805460018160011615610100020316600290048015610bb45780601f10610b8957610100808354040283529160200191610bb4565b820191906000526020600020905b815481529060010190602001808311610b9757829003601f168201915b505050505090806004018054600181600116156101000203166002900480601f016020809104026020016040519081016040528092919081815260200182805460018160011615610100020316600290048015610c525780601f10610c2757610100808354040283529160200191610c52565b820191906000526020600020905b815481529060010190602001808311610c3557829003601f168201915b5050505050908060050160009054906101000a9004600f0b90806006018054600181600116156101000203166002900480601f016020809104026020016040519081016040528092919081815260200182805460018160011615610100020316600290048015610d035780601f10610cd857610100808354040283529160200191610d03565b820191906000526020600020905b815481529060010190602001808311610ce657829003601f168201915b5050505050908060070160009054906101000a900460ff16908060070160019054906101000a900460ff16905089565b6001602052806000526040600020600091509050806000015490806001018054600181600116156101000203166002900480601f016020809104026020016040519081016040528092919081815260200182805460018160011615610100020316600290048015610de55780601f10610dba57610100808354040283529160200191610de5565b820191906000526020600020905b815481529060010190602001808311610dc857829003601f168201915b505050505090806002015490806003018054600181600116156101000203166002900480601f016020809104026020016040519081016040528092919081815260200182805460018160011615610100020316600290048015610e895780601f10610e5e57610100808354040283529160200191610e89565b820191906000526020600020905b815481529060010190602001808311610e6c57829003601f168201915b505050505090806004018054600181600116156101000203166002900480601f016020809104026020016040519081016040528092919081815260200182805460018160011615610100020316600290048015610f275780601f10610efc57610100808354040283529160200191610f27565b820191906000526020600020905b815481529060010190602001808311610f0a57829003601f168201915b5050505050908060050160009054906101000a9004600f0b90806006018054600181600116156101000203166002900480601f016020809104026020016040519081016040528092919081815260200182805460018160011615610100020316600290048015610fd85780601f10610fad57610100808354040283529160200191610fd8565b820191906000526020600020905b815481529060010190602001808311610fbb57829003601f168201915b5050505050908060070160009054906101000a900460ff16908060070160019054906101000a900460ff16905089565b6000600280549050905090565b60005481565b600042905090565b60008090505b60028054905081101561122f578860028281548110151561104657fe5b9060005260206000209060080201600001541415611222578760028281548110151561106e57fe5b906000526020600020906008020160010190805190602001906110929291906118d1565b50426002828154811015156110a357fe5b906000526020600020906008020160020181905550866002828154811015156110c857fe5b906000526020600020906008020160030190805190602001906110ec9291906118d1565b50856002828154811015156110fd57fe5b906000526020600020906008020160040190805190602001906111219291906118d1565b508460028281548110151561113257fe5b906000526020600020906008020160050160006101000a8154816fffffffffffffffffffffffffffffffff0219169083600f0b6fffffffffffffffffffffffffffffffff1602179055508360028281548110151561118c57fe5b906000526020600020906008020160060190805190602001906111b09291906118d1565b50826002828154811015156111c157fe5b906000526020600020906008020160070160006101000a81548160ff021916908315150217905550816002828154811015156111f957fe5b906000526020600020906008020160070160016101000a81548160ff0219169083151502179055505b8080600101915050611029565b505050505050505050565b60028181548110151561124957fe5b90600052602060002090600802016000808201600090556001820160006112709190611951565b60028201600090556003820160006112889190611951565b6004820160006112989190611951565b6005820160006101000a8154906fffffffffffffffffffffffffffffffff02191690556006820160006112cb9190611951565b6007820160006101000a81549060ff02191690556007820160016101000a81549060ff0219169055505050565b600261012060405190810160405280600054815260200187815260200142815260200186815260200185815260200184600f0b81526020018381526020016000151581526020016001151581525090806001815401808255809150509060018203906000526020600020906008020160009091929091909150600082015181600001556020820151816001019080519060200190611397929190611999565b506040820151816002015560608201518160030190805190602001906113be929190611999565b5060808201518160040190805190602001906113db929190611999565b5060a08201518160050160006101000a8154816fffffffffffffffffffffffffffffffff0219169083600f0b6fffffffffffffffffffffffffffffffff16021790555060c082015181600601908051906020019061143a929190611999565b5060e08201518160070160006101000a81548160ff0219169083151502179055506101008201518160070160016101000a81548160ff02191690831515021790555050505060008081548092919060010191905055505050505050565b6000606060006060806000606060008060008090505b6002805490508110156118c2578a6002828154811015156114ca57fe5b90600052602060002090600802016000015414156118b5576002818154811015156114f157fe5b90600052602060002090600802016000015460028281548110151561151257fe5b906000526020600020906008020160010160028381548110151561153257fe5b90600052602060002090600802016002015460028481548110151561155357fe5b906000526020600020906008020160030160028581548110151561157357fe5b906000526020600020906008020160040160028681548110151561159357fe5b906000526020600020906008020160050160009054906101000a9004600f0b6002878154811015156115c157fe5b90600052602060002090600802016006016002888154811015156115e157fe5b906000526020600020906008020160070160009054906101000a900460ff1660028981548110151561160f57fe5b906000526020600020906008020160070160019054906101000a900460ff16878054600181600116156101000203166002900480601f0160208091040260200160405190810160405280929190818152602001828054600181600116156101000203166002900480156116c35780601f10611698576101008083540402835291602001916116c3565b820191906000526020600020905b8154815290600101906020018083116116a657829003601f168201915b50505050509750858054600181600116156101000203166002900480601f01602080910402602001604051908101604052809291908181526020018280546001816001161561010002031660029004801561175f5780601f106117345761010080835404028352916020019161175f565b820191906000526020600020905b81548152906001019060200180831161174257829003601f168201915b50505050509550848054600181600116156101000203166002900480601f0160208091040260200160405190810160405280929190818152602001828054600181600116156101000203166002900480156117fb5780601f106117d0576101008083540402835291602001916117fb565b820191906000526020600020905b8154815290600101906020018083116117de57829003601f168201915b50505050509450828054600181600116156101000203166002900480601f0160208091040260200160405190810160405280929190818152602001828054600181600116156101000203166002900480156118975780601f1061186c57610100808354040283529160200191611897565b820191906000526020600020905b81548152906001019060200180831161187a57829003601f168201915b505050505092509950995099509950995099509950995099506118c3565b80806001019150506114ad565b5b509193959799909294969850565b828054600181600116156101000203166002900490600052602060002090601f016020900481019282601f1061191257805160ff1916838001178555611940565b82800160010185558215611940579182015b8281111561193f578251825591602001919060010190611924565b5b50905061194d9190611a19565b5090565b50805460018160011615610100020316600290046000825580601f106119775750611996565b601f0160209004906000526020600020908101906119959190611a19565b5b50565b828054600181600116156101000203166002900490600052602060002090601f016020900481019282601f106119da57805160ff1916838001178555611a08565b82800160010185558215611a08579182015b82811115611a075782518255916020019190600101906119ec565b5b509050611a159190611a19565b5090565b611a3b91905b80821115611a37576000816000905550600101611a1f565b5090565b905600a165627a7a72305820f7d65a9b7519a123727bcaea01bb7bfb5d4a84b45385deb3c5a42126f79165660029",
  "source": "//pragma solidity ^0.4.25;\r\npragma solidity >=0.4.18 <0.6.0;\r\n\r\ncontract librettoMisure{\r\n    \r\n    struct Misura {\r\n    uint id;\r\n    string tariffa;\r\n    uint data;\r\n    string categoriaContabile;\r\n    string descrizione;\r\n    int128 percentuale;\r\n    string riserva;\r\n    bool aprovaz;\r\n    bool valid;\r\n\r\n    }\r\n    \r\n    uint public nextId;\r\n    \r\n    \r\n    mapping (uint => Misura) public misuress;\r\n    Misura[] public misures;  //valores del array\r\n    //mapping (address => User) userStructs\r\n    //address[] public userAddresses;\r\n    \r\n    \r\n    function create(string memory tariffa,string memory categoriaContabile,string memory descrizione,int128 percentuale,string memory riserva) public{\r\n        \r\n        misures.push(Misura(nextId,tariffa,now,categoriaContabile,descrizione,percentuale,riserva,false,true));\r\n        nextId++;\r\n    }\r\n    \r\n    function read(uint id) view public returns(uint, string memory ,uint,string memory,string memory,int128,string memory,bool,bool){\r\n        \r\n        for(uint i=0;i<misures.length;i++)\r\n        {\r\n            if(misures[i].id==id)\r\n            {\r\n             return(misures[i].id,misures[i].tariffa,misures[i].data,misures[i].categoriaContabile,misures[i].descrizione,misures[i].percentuale,misures[i].riserva,misures[i].aprovaz,misures[i].valid);\r\n            }\r\n            \r\n        }\r\n        \r\n    }\r\n    \r\n     function read_size() view public returns(uint){\r\n        \r\n        return(misures.length);\r\n         \r\n    }\r\n    \r\n    \r\n    function update(uint id, string memory tariffa,string memory categoriaContabile,string memory descrizione,int128 percentuale,string memory riserva,bool aprovaz,bool valid) public {\r\n        \r\n        for(uint i=0;i<misures.length;i++)\r\n        {\r\n            if(misures[i].id==id)\r\n            {\r\n             misures[i].tariffa=tariffa;\r\n            misures[i].data=now;\r\n            misures[i].categoriaContabile=categoriaContabile;\r\n            misures[i].descrizione=descrizione;\r\n            misures[i].percentuale=percentuale;\r\n            misures[i].riserva=riserva;\r\n            misures[i].aprovaz=aprovaz;\r\n            misures[i].valid=valid;\r\n            }\r\n            \r\n        }\r\n        \r\n    }\r\n    function destroy(uint id) public{\r\n        delete misures[id];\r\n    }\r\n    \r\n    function prueba() view public returns(uint){\r\n        \r\n        \r\n        \r\n        return now;\r\n     //   1570490594\r\n        \r\n    }\r\n    \r\n}\r\n",
  "sourcePath": "E:\\xampp\\htdocs\\IDS_3\\Progetto_IDS\\contracts\\librettoMisure.sol",
  "compiler": {
    "name": "solc",
    "version": "0.4.25+commit.59dbf8f1.Emscripten.clang"
  },
  "schemaVersion": "2.0.2",
  "updatedAt": "2019-10-22T10:26:27.446Z"
}