{
  "contractName": "librettoMisure",
  "abi": [
    {
      "constant": true,
      "inputs": [
        {
          "name": "",
          "type": "uint256"
        }
      ],
      "name": "misures",
      "outputs": [
        {
          "name": "id",
          "type": "uint256"
        },
        {
          "name": "tariffa",
          "type": "string"
        },
        {
          "name": "data",
          "type": "string"
        },
        {
          "name": "categoriaContabile",
          "type": "string"
        },
        {
          "name": "descrizione",
          "type": "string"
        },
        {
          "name": "percentuale",
          "type": "uint256"
        },
        {
          "name": "riserva",
          "type": "string"
        }
      ],
      "payable": false,
      "stateMutability": "view",
      "type": "function"
    },
    {
      "constant": true,
      "inputs": [
        {
          "name": "",
          "type": "uint256"
        }
      ],
      "name": "misuress",
      "outputs": [
        {
          "name": "id",
          "type": "uint256"
        },
        {
          "name": "tariffa",
          "type": "string"
        },
        {
          "name": "data",
          "type": "string"
        },
        {
          "name": "categoriaContabile",
          "type": "string"
        },
        {
          "name": "descrizione",
          "type": "string"
        },
        {
          "name": "percentuale",
          "type": "uint256"
        },
        {
          "name": "riserva",
          "type": "string"
        }
      ],
      "payable": false,
      "stateMutability": "view",
      "type": "function"
    },
    {
      "constant": true,
      "inputs": [],
      "name": "nextId",
      "outputs": [
        {
          "name": "",
          "type": "uint256"
        }
      ],
      "payable": false,
      "stateMutability": "view",
      "type": "function"
    },
    {
      "constant": false,
      "inputs": [
        {
          "name": "tariffa",
          "type": "string"
        },
        {
          "name": "data",
          "type": "string"
        },
        {
          "name": "categoriaContabile",
          "type": "string"
        },
        {
          "name": "descrizione",
          "type": "string"
        },
        {
          "name": "percentuale",
          "type": "uint256"
        },
        {
          "name": "riserva",
          "type": "string"
        }
      ],
      "name": "create",
      "outputs": [],
      "payable": false,
      "stateMutability": "nonpayable",
      "type": "function"
    },
    {
      "constant": true,
      "inputs": [
        {
          "name": "id",
          "type": "uint256"
        }
      ],
      "name": "read",
      "outputs": [
        {
          "name": "",
          "type": "uint256"
        },
        {
          "name": "",
          "type": "string"
        },
        {
          "name": "",
          "type": "string"
        },
        {
          "name": "",
          "type": "string"
        },
        {
          "name": "",
          "type": "string"
        },
        {
          "name": "",
          "type": "uint256"
        },
        {
          "name": "",
          "type": "string"
        }
      ],
      "payable": false,
      "stateMutability": "view",
      "type": "function"
    },
    {
      "constant": true,
      "inputs": [],
      "name": "read_size",
      "outputs": [
        {
          "name": "",
          "type": "uint256"
        }
      ],
      "payable": false,
      "stateMutability": "view",
      "type": "function"
    },
    {
      "constant": false,
      "inputs": [
        {
          "name": "id",
          "type": "uint256"
        },
        {
          "name": "tariffa",
          "type": "string"
        },
        {
          "name": "data",
          "type": "string"
        },
        {
          "name": "categoriaContabile",
          "type": "string"
        },
        {
          "name": "descrizione",
          "type": "string"
        },
        {
          "name": "percentuale",
          "type": "uint256"
        },
        {
          "name": "riserva",
          "type": "string"
        }
      ],
      "name": "update",
      "outputs": [],
      "payable": false,
      "stateMutability": "nonpayable",
      "type": "function"
    },
    {
      "constant": false,
      "inputs": [
        {
          "name": "id",
          "type": "uint256"
        }
      ],
      "name": "destroy",
      "outputs": [],
      "payable": false,
      "stateMutability": "nonpayable",
      "type": "function"
    }
  ],
  "bytecode": "0x608060405234801561001057600080fd5b50611b1b806100206000396000f30060806040526004361061008e576000357c0100000000000000000000000000000000000000000000000000000000900463ffffffff1680630ae86c15146100935780631a75162c146102f75780631dac37861461055b57806361b8ce8c146105865780639d118770146105b15780639ed63648146105de578063b43622d014610769578063ed2e5a97146108fe575b600080fd5b34801561009f57600080fd5b506100be60048036038101908080359060200190929190505050610b62565b60405180888152602001806020018060200180602001806020018781526020018060200186810386528c818151815260200191508051906020019080838360005b8381101561011a5780820151818401526020810190506100ff565b50505050905090810190601f1680156101475780820380516001836020036101000a031916815260200191505b5086810385528b818151815260200191508051906020019080838360005b83811015610180578082015181840152602081019050610165565b50505050905090810190601f1680156101ad5780820380516001836020036101000a031916815260200191505b5086810384528a818151815260200191508051906020019080838360005b838110156101e65780820151818401526020810190506101cb565b50505050905090810190601f1680156102135780820380516001836020036101000a031916815260200191505b50868103835289818151815260200191508051906020019080838360005b8381101561024c578082015181840152602081019050610231565b50505050905090810190601f1680156102795780820380516001836020036101000a031916815260200191505b50868103825287818151815260200191508051906020019080838360005b838110156102b2578082015181840152602081019050610297565b50505050905090810190601f1680156102df5780820380516001836020036101000a031916815260200191505b509c5050505050505050505050505060405180910390f35b34801561030357600080fd5b5061032260048036038101908080359060200190929190505050610eab565b60405180888152602001806020018060200180602001806020018781526020018060200186810386528c818151815260200191508051906020019080838360005b8381101561037e578082015181840152602081019050610363565b50505050905090810190601f1680156103ab5780820380516001836020036101000a031916815260200191505b5086810385528b818151815260200191508051906020019080838360005b838110156103e45780820151818401526020810190506103c9565b50505050905090810190601f1680156104115780820380516001836020036101000a031916815260200191505b5086810384528a818151815260200191508051906020019080838360005b8381101561044a57808201518184015260208101905061042f565b50505050905090810190601f1680156104775780820380516001836020036101000a031916815260200191505b50868103835289818151815260200191508051906020019080838360005b838110156104b0578082015181840152602081019050610495565b50505050905090810190601f1680156104dd5780820380516001836020036101000a031916815260200191505b50868103825287818151815260200191508051906020019080838360005b838110156105165780820151818401526020810190506104fb565b50505050905090810190601f1680156105435780820380516001836020036101000a031916815260200191505b509c5050505050505050505050505060405180910390f35b34801561056757600080fd5b506105706111e5565b6040518082815260200191505060405180910390f35b34801561059257600080fd5b5061059b6111f2565b6040518082815260200191505060405180910390f35b3480156105bd57600080fd5b506105dc600480360381019080803590602001909291905050506111f8565b005b3480156105ea57600080fd5b50610767600480360381019080803590602001908201803590602001908080601f0160208091040260200160405190810160405280939291908181526020018383808284378201915050505050509192919290803590602001908201803590602001908080601f0160208091040260200160405190810160405280939291908181526020018383808284378201915050505050509192919290803590602001908201803590602001908080601f0160208091040260200160405190810160405280939291908181526020018383808284378201915050505050509192919290803590602001908201803590602001908080601f016020809104026020016040519081016040528093929190818152602001838380828437820191505050505050919291929080359060200190929190803590602001908201803590602001908080601f016020809104026020016040519081016040528093929190818152602001838380828437820191505050505050919291929050505061127b565b005b34801561077557600080fd5b506108fc60048036038101908080359060200190929190803590602001908201803590602001908080601f0160208091040260200160405190810160405280939291908181526020018383808284378201915050505050509192919290803590602001908201803590602001908080601f0160208091040260200160405190810160405280939291908181526020018383808284378201915050505050509192919290803590602001908201803590602001908080601f0160208091040260200160405190810160405280939291908181526020018383808284378201915050505050509192919290803590602001908201803590602001908080601f016020809104026020016040519081016040528093929190818152602001838380828437820191505050505050919291929080359060200190929190803590602001908201803590602001908080601f016020809104026020016040519081016040528093929190818152602001838380828437820191505050505050919291929050505061139f565b005b34801561090a57600080fd5b5061092960048036038101908080359060200190929190505050611520565b60405180888152602001806020018060200180602001806020018781526020018060200186810386528c818151815260200191508051906020019080838360005b8381101561098557808201518184015260208101905061096a565b50505050905090810190601f1680156109b25780820380516001836020036101000a031916815260200191505b5086810385528b818151815260200191508051906020019080838360005b838110156109eb5780820151818401526020810190506109d0565b50505050905090810190601f168015610a185780820380516001836020036101000a031916815260200191505b5086810384528a818151815260200191508051906020019080838360005b83811015610a51578082015181840152602081019050610a36565b50505050905090810190601f168015610a7e5780820380516001836020036101000a031916815260200191505b50868103835289818151815260200191508051906020019080838360005b83811015610ab7578082015181840152602081019050610a9c565b50505050905090810190601f168015610ae45780820380516001836020036101000a031916815260200191505b50868103825287818151815260200191508051906020019080838360005b83811015610b1d578082015181840152602081019050610b02565b50505050905090810190601f168015610b4a5780820380516001836020036101000a031916815260200191505b509c5050505050505050505050505060405180910390f35b600281815481101515610b7157fe5b9060005260206000209060070201600091509050806000015490806001018054600181600116156101000203166002900480601f016020809104026020016040519081016040528092919081815260200182805460018160011615610100020316600290048015610c235780601f10610bf857610100808354040283529160200191610c23565b820191906000526020600020905b815481529060010190602001808311610c0657829003601f168201915b505050505090806002018054600181600116156101000203166002900480601f016020809104026020016040519081016040528092919081815260200182805460018160011615610100020316600290048015610cc15780601f10610c9657610100808354040283529160200191610cc1565b820191906000526020600020905b815481529060010190602001808311610ca457829003601f168201915b505050505090806003018054600181600116156101000203166002900480601f016020809104026020016040519081016040528092919081815260200182805460018160011615610100020316600290048015610d5f5780601f10610d3457610100808354040283529160200191610d5f565b820191906000526020600020905b815481529060010190602001808311610d4257829003601f168201915b505050505090806004018054600181600116156101000203166002900480601f016020809104026020016040519081016040528092919081815260200182805460018160011615610100020316600290048015610dfd5780601f10610dd257610100808354040283529160200191610dfd565b820191906000526020600020905b815481529060010190602001808311610de057829003601f168201915b505050505090806005015490806006018054600181600116156101000203166002900480601f016020809104026020016040519081016040528092919081815260200182805460018160011615610100020316600290048015610ea15780601f10610e7657610100808354040283529160200191610ea1565b820191906000526020600020905b815481529060010190602001808311610e8457829003601f168201915b5050505050905087565b6001602052806000526040600020600091509050806000015490806001018054600181600116156101000203166002900480601f016020809104026020016040519081016040528092919081815260200182805460018160011615610100020316600290048015610f5d5780601f10610f3257610100808354040283529160200191610f5d565b820191906000526020600020905b815481529060010190602001808311610f4057829003601f168201915b505050505090806002018054600181600116156101000203166002900480601f016020809104026020016040519081016040528092919081815260200182805460018160011615610100020316600290048015610ffb5780601f10610fd057610100808354040283529160200191610ffb565b820191906000526020600020905b815481529060010190602001808311610fde57829003601f168201915b505050505090806003018054600181600116156101000203166002900480601f0160208091040260200160405190810160405280929190818152602001828054600181600116156101000203166002900480156110995780601f1061106e57610100808354040283529160200191611099565b820191906000526020600020905b81548152906001019060200180831161107c57829003601f168201915b505050505090806004018054600181600116156101000203166002900480601f0160208091040260200160405190810160405280929190818152602001828054600181600116156101000203166002900480156111375780601f1061110c57610100808354040283529160200191611137565b820191906000526020600020905b81548152906001019060200180831161111a57829003601f168201915b505050505090806005015490806006018054600181600116156101000203166002900480601f0160208091040260200160405190810160405280929190818152602001828054600181600116156101000203166002900480156111db5780601f106111b0576101008083540402835291602001916111db565b820191906000526020600020905b8154815290600101906020018083116111be57829003601f168201915b5050505050905087565b6000600280549050905090565b60005481565b60028181548110151561120757fe5b906000526020600020906007020160008082016000905560018201600061122e9190611982565b60028201600061123e9190611982565b60038201600061124e9190611982565b60048201600061125e9190611982565b60058201600090556006820160006112769190611982565b505050565b600260e060405190810160405280600054815260200188815260200187815260200186815260200185815260200184815260200183815250908060018154018082558091505090600182039060005260206000209060070201600090919290919091506000820151816000015560208201518160010190805190602001906113049291906119ca565b5060408201518160020190805190602001906113219291906119ca565b50606082015181600301908051906020019061133e9291906119ca565b50608082015181600401908051906020019061135b9291906119ca565b5060a0820151816005015560c08201518160060190805190602001906113829291906119ca565b505050506000808154809291906001019190505550505050505050565b60008090505b60028054905081101561151657876002828154811015156113c257fe5b906000526020600020906007020160000154141561150957866002828154811015156113ea57fe5b9060005260206000209060070201600101908051906020019061140e929190611a4a565b508560028281548110151561141f57fe5b90600052602060002090600702016002019080519060200190611443929190611a4a565b508460028281548110151561145457fe5b90600052602060002090600702016003019080519060200190611478929190611a4a565b508360028281548110151561148957fe5b906000526020600020906007020160040190805190602001906114ad929190611a4a565b50826002828154811015156114be57fe5b906000526020600020906007020160050181905550816002828154811015156114e357fe5b90600052602060002090600702016006019080519060200190611507929190611a4a565b505b80806001019150506113a5565b5050505050505050565b60006060806060806000606060008090505b600280549050811015611975578860028281548110151561154f57fe5b90600052602060002090600702016000015414156119685760028181548110151561157657fe5b90600052602060002090600702016000015460028281548110151561159757fe5b90600052602060002090600702016001016002838154811015156115b757fe5b90600052602060002090600702016002016002848154811015156115d757fe5b90600052602060002090600702016003016002858154811015156115f757fe5b906000526020600020906007020160040160028681548110151561161757fe5b90600052602060002090600702016005015460028781548110151561163857fe5b9060005260206000209060070201600601858054600181600116156101000203166002900480601f0160208091040260200160405190810160405280929190818152602001828054600181600116156101000203166002900480156116de5780601f106116b3576101008083540402835291602001916116de565b820191906000526020600020905b8154815290600101906020018083116116c157829003601f168201915b50505050509550848054600181600116156101000203166002900480601f01602080910402602001604051908101604052809291908181526020018280546001816001161561010002031660029004801561177a5780601f1061174f5761010080835404028352916020019161177a565b820191906000526020600020905b81548152906001019060200180831161175d57829003601f168201915b50505050509450838054600181600116156101000203166002900480601f0160208091040260200160405190810160405280929190818152602001828054600181600116156101000203166002900480156118165780601f106117eb57610100808354040283529160200191611816565b820191906000526020600020905b8154815290600101906020018083116117f957829003601f168201915b50505050509350828054600181600116156101000203166002900480601f0160208091040260200160405190810160405280929190818152602001828054600181600116156101000203166002900480156118b25780601f10611887576101008083540402835291602001916118b2565b820191906000526020600020905b81548152906001019060200180831161189557829003601f168201915b50505050509250808054600181600116156101000203166002900480601f01602080910402602001604051908101604052809291908181526020018280546001816001161561010002031660029004801561194e5780601f106119235761010080835404028352916020019161194e565b820191906000526020600020905b81548152906001019060200180831161193157829003601f168201915b505050505090509750975097509750975097509750611976565b8080600101915050611532565b5b50919395979092949650565b50805460018160011615610100020316600290046000825580601f106119a857506119c7565b601f0160209004906000526020600020908101906119c69190611aca565b5b50565b828054600181600116156101000203166002900490600052602060002090601f016020900481019282601f10611a0b57805160ff1916838001178555611a39565b82800160010185558215611a39579182015b82811115611a38578251825591602001919060010190611a1d565b5b509050611a469190611aca565b5090565b828054600181600116156101000203166002900490600052602060002090601f016020900481019282601f10611a8b57805160ff1916838001178555611ab9565b82800160010185558215611ab9579182015b82811115611ab8578251825591602001919060010190611a9d565b5b509050611ac69190611aca565b5090565b611aec91905b80821115611ae8576000816000905550600101611ad0565b5090565b905600a165627a7a723058206a0149e79445d433b57fdf497d953edb5f5acd7fcbd3b8e9e534f9965a63b5730029",
  "source": "pragma solidity ^0.4.25;\r\n\r\ncontract librettoMisure{\r\n    \r\n    struct Misura {\r\n    uint id;\r\n    string tariffa;\r\n    string data;\r\n    string categoriaContabile;\r\n    string descrizione;\r\n    uint percentuale;\r\n    string riserva;\r\n\r\n    }\r\n    \r\n    uint public nextId;\r\n    \r\n    mapping (uint => Misura) public misuress;\r\n    Misura[] public misures;  //valores del array\r\n    //mapping (address => User) userStructs\r\n    //address[] public userAddresses;\r\n    \r\n    \r\n    function create(string memory tariffa,string memory data ,string memory categoriaContabile,string memory descrizione,uint percentuale,string memory riserva) public{\r\n        \r\n        misures.push(Misura(nextId,tariffa,data,categoriaContabile,descrizione,percentuale,riserva));\r\n        nextId++;\r\n    }\r\n    \r\n    function read(uint id) view public returns(uint, string memory,string memory,string memory,string memory,uint,string memory){\r\n        \r\n        for(uint i=0;i<misures.length;i++)\r\n        {\r\n            if(misures[i].id==id)\r\n            {\r\n             return(misures[i].id,misures[i].tariffa,misures[i].data,misures[i].categoriaContabile,misures[i].descrizione,misures[i].percentuale,misures[i].riserva);\r\n            }\r\n            \r\n        }\r\n        \r\n    }\r\n    \r\n     function read_size() view public returns(uint){\r\n        \r\n        return(misures.length);\r\n         \r\n    }\r\n    \r\n    \r\n    function update(uint id, string memory tariffa,string memory data,string memory categoriaContabile,string memory descrizione,uint percentuale,string memory riserva) public {\r\n        \r\n        for(uint i=0;i<misures.length;i++)\r\n        {\r\n            if(misures[i].id==id)\r\n            {\r\n             misures[i].tariffa=tariffa;\r\n            misures[i].data=data;\r\n            misures[i].categoriaContabile=categoriaContabile;\r\n            misures[i].descrizione=descrizione;\r\n            misures[i].percentuale=percentuale;\r\n            misures[i].riserva=riserva;\r\n            }\r\n            \r\n        }\r\n        \r\n    }\r\n    function destroy(uint id) public{\r\n        delete misures[id];\r\n    }\r\n    \r\n}\r\n",
  "sourcePath": "E:\\xampp\\htdocs\\IDS_3\\Progetto_IDS\\contracts\\librettoMisure.sol",
  "compiler": {
    "name": "solc",
    "version": "0.4.25+commit.59dbf8f1.Emscripten.clang"
  },
  "schemaVersion": "2.0.2",
  "updatedAt": "2019-10-03T10:07:09.642Z"
}